:1000000000800010FD2C0000312D00002F1B00008F
:10001000331B0000371B00003B1B000000000000EA
:100020000000000000000000000000003B2D000068
:100030003F1B0000000000003F2D0000412D00008C
:10004000452D0000472D0000492D00004B2D0000DC
:100050004D2D0000431B0000471B00004B1B000000
:100060004F1B0000572D0000592D00005B2D000094
:100070005D2D00005F2D0000612D0000632D00004C
:10008000652D0000672D0000692D00006B2D00001C
:100090006D2D00006F2D0000712D0000732D0000EC
:1000A000752D0000772D0000792D00007B2D0000BC
:1000B0007D2D00007F2D0000812D0000832D00008C
:1000C000852D0000872D0000892D000010B5054CFE
:1000D000237833B9044810B10448AFF300800121FC
:1000E000217010BD680100100000000058410000A0
:1000F00008B5064B1BB106480649AFF30080064819
:10010000016811B1054A02B1904708BD0000000026
:10011000584100006C010010640100100000000054
:100120004EF69053CEF200031B6803F47F434FEA70
:1001300013231846704700BF08B5FFF7F1FF0346C9
:1001400003F1FF33184608BD00B583B00190FFF7F7
:10015000E7FF0246019B9A4294BF00230123DBB2D2
:10016000184603B000BD00BF08B5FFF7D9FF03462E
:10017000002B14BF00230123DBB2184608BD00BFCB
:1001800008B5FFF7F1FF0346002B0CBF0023012346
:10019000DBB2002B10D14EF69053CEF200034EF698
:1001A0009052CEF20002526822F001025A60BFF370
:1001B0004F8FBFF36F8F00E000BF08BD08B5FFF79A
:1001C000D3FF0346002B0CBF00230123DBB2002B1F
:1001D00010D14EF69053CEF200034EF69052CEF26E
:1001E0000002526842F003025A60BFF34F8FBFF320
:1001F0006F8F00E000BF08BD00B583B0019001988B
:10020000FFF7A2FF0346002B14BF00230123DBB23C
:10021000002B02D04FF0000307E04EF69053CEF2D1
:100220000003019A9A604FF00103184603B000BD25
:1002300000B583B00190FFF797FF0346002B0CBF7A
:1002400000230123DBB2002B08D14EF69053CEF2EF
:100250000003019A4FEA4212DA6000E000BF03B0E7
:1002600000BD00BF00B583B00190FFF77DFF0346DE
:10027000002B0CBF00230123DBB2002B06D14EF66E
:100280009053CEF20003019A1A6100E000BF03B060
:1002900000BD00BF704700BF704700BF4FF46D4303
:1002A000CEF200034FF46D42CEF20002526942F0EA
:1002B00008025A61704700BF08B5FFF73DFF0346CB
:1002C0001846FFF799FF4FF00000FFF7B1FF4FF01E
:1002D0003F00C0F20010FFF7C5FF08BD08B5FFF7EB
:1002E0004FFFFFF7E9FFFFF769FF08BD08B5FFF70C
:1002F000D5FFFFF7F3FFFFF7CDFFFFF7CDFF00BE00
:10030000FDE700BF00B583B040F2E442C1F2000255
:1003100040F26813C1F20003D31A0193019B40F22B
:100320006810C1F200004FF000011A4603F045F8D2
:1003300043F26440C0F2000000F00EF8AFF300801A
:1003400003F00CF8FFF7D2FF0090009802F0A4FC35
:100350004FF0FF331846704770B500219EB024223D
:100360000E4C06460E4803F028F8002501A825602B
:1003700000F0F2F901A83146256000F0F7F9236892
:1003800013B901A801F09CF9206820B904494A6911
:1003900042F003034B611EB070BD00BFDC010010D2
:1003A0008401001010B500F09BFC044600F09CFC9A
:1003B000024603482146BDE8104001F025BC00BFBD
:1003C0008C01001010B50446FFF7ECFF02482146EF
:1003D000BDE8104001F0CABC8C010010024B586906
:1003E00000F00400704700BF8401001008B5054B01
:1003F000586910F0020004D000F096FF003018BFDA
:10040000012008BD84010010044B5A6910B142F06C
:10041000040001E022F004005861704784010010DC
:10042000034BD869011F4A4252EB0100704700BFDD
:100430008401001010B5064C00F0ACFDA06900F07E
:1004400001FEA36913B1E2690248026010BD00BF5A
:1004500084010010E0040010024B586900F0020013
:10046000704700BF84010010014B83F820007047E3
:1004700084010010014B93F82000704784010010A4
:10048000014B9861D961704784010010014B986954
:10049000704700BF84010010004870478C010010B5
:1004A00008B5FFF77FFF014808BD00BF8C010010B1
:1004B00008B50A4801F0D0FB28B1FFF773FF0748E1
:1004C000074901F053FC054801F0A6FB054800F17F
:1004D0000801BDE8084000F0F9B800BF8C01001029
:1004E000783400008401001010B5FFF75BFF12485C
:1004F00000F1080100F094F8104801F0C7FB002358
:100500000F4A02EBC3010C79844206D152F8330042
:1005100080478207044607D508E001330C2BEFD152
:100520000848FFF74FFF0024FFF7C2FF04F0010463
:10053000002CDAD010BD00BF840100108C01001027
:100540007C340000EE34000070B5FFF74FFF054625
:1005500000F0BEFB064600F0CBFE30B100F0A4FE7A
:1005600018B9BDE8704000F0CFBEAFF30080FFF7D0
:100570003DFF60B100F0E6FE0028FBD100F09EFEDA
:100580002B2804D001F04EF800F0EAFEF2E700F06C
:1005900027FC00F0ABFB134C052884F820000FD19A
:1005A00001F0DCF860B101F0E3F848B146B900F0C1
:1005B0008FFCAFF30080616921F00203636170BDBD
:1005C0001DB900F0C7FB02F0E7F8FFF78DFF00F060
:1005D0007FFCAFF30080034B5A6922F002005861A0
:1005E00070BD00BF84010010A0F16103052B01D88C
:1005F00057387047A0F14101052901D837387047B5
:100600003038C2B2092A07D904480368022BB8BFA0
:10061000022303604FF0FF30704700BFDC01001081
:1006200038B5082204460D46002102F0C6FE2560BA
:100630002579242D04D000F041FEC5B22571F8E7DC
:10064000206801F0E6FA0023637100F037FEC5B2BE
:100650002571206801F0E3FA58B1242DE8D0232D4C
:1006600009D062792068A9186171294601F0FCFA65
:10067000EBE7232DDCD100F021FEC0B22071FFF7A3
:10068000B3FF054600F01AFEC0B22071FFF7ACFFC1
:10069000EDB240EA0510A07100F006FE0028C7D1B7
:1006A000A27961798A4201D02D2000E02B2000F050
:1006B00011FEA07963799842BAD1206801F0ACFAB2
:1006C0002068BDE8384001F0A4BA000070B50822E7
:1006D00004460D46002102F070FE2560206801F0FE
:1006E00098FA00236371242000F0F4FD206801F0E3
:1006F00096FA48B1206801F0C9FA054600F0EAFD13
:100700006379EE186671F1E7232000F0E3FD667966
:100710000A4D3009285C06F00F0600F0DBFDA85DED
:1007200000F0D8FD00F0CAFDC1B203292071F9D054
:10073000CAB22B2A01D0242AD0D170BDDC340000EB
:1007400010B500212822044602F037FE0023E362A0
:1007500084F8303010BD000010B50446FFF7F0FFFC
:10076000014BA36210BD00BFEC3400002B4B70B5F1
:10077000002204460D461A60FFF7E2FF04F1300341
:1007800029461A4605F14006084611F8015B25B1D5
:10079000B14202F8015B0846F6D1002111700078E1
:1007A0001E4A20B111680129B8BF012111601068EB
:1007B000002832D11A78002A2FD01A4613F8015B8C
:1007C0002DB9164B00201860117849B912E0A16AC2
:1007D000481E10F8011F0029F3D08D42F9D1ECE733
:1007E000E06A092802D90120186003E0411C44F89E
:1007F0002020E1621B6883B9134612F8015B002DCB
:10080000D8D0A16A481E10F8011F0029F4D08D42EB
:10081000F9D1002103F8011BCCE770BDDC01001009
:100820002DE9F041C76A064688460024BC4208D03C
:1008300056F824504146284602F0C7FD10B1013455
:10084000F4E700252846BDE8F0812DE9F041C76AAC
:10085000064688460025BD4209D056F82540414647
:10086000204602F0DCFD844202D00135F3E700248B
:100870002046BDE8F0810000124BF0B51F68064627
:100880003F0F002303F1606000F581700001BB425F
:1008900013D085680C4C2C40944210D10468B442AB
:1008A0000DD1D0F804C00D460024012D02D96D08E9
:1008B0000134FAE7A44502D1F0BD0020F0BD0133B8
:1008C000E0E700BF001000E0AFFD0F00044B196827
:1008D000C1F3031001F4E04240EA1220704700BF68
:1008E000002000E0054B1A68C2F30721884202D2BB
:1008F0009860012070470020704700BF90ED00E035
:1009000070B51E4DAC6A14F0FF0635D01C4801F0DE
:1009100082FF1C4801F07FFF304601F0A3FF220652
:1009200005D5194801F077FF686B01F09BFFA3061E
:1009300002D5164801F06FFFE00607D5144801F014
:100940006AFF144BD3F8080201F08CFF210707D58A
:10095000114801F060FF0F48D0F8080201F082FF53
:10096000A20702D50D4801F056FFE30704D50C4855
:10097000BDE8704001F04FBF70BD00BF00ED00E06A
:10098000EF370000FE370000133800002838000061
:1009900042380000E00100105F3800007E3800009F
:1009A0008F38000070B5214DAC6A240A14F0FF06A0
:1009B0003AD01F4801F02FFF1E4801F02CFF3046AF
:1009C00001F050FF230605D51B4801F024FFA86B5A
:1009D00001F048FFA00602D5184801F01CFFE1060F
:1009E00007D5174801F017FF164BD3F8080201F09E
:1009F00039FF220707D5144801F00DFF1148D0F840
:100A0000080201F02FFF630702D5104801F003FF31
:100A1000A00702D50E4801F0FEFEE10704D50D48FF
:100A2000BDE8704001F0F7BE70BD00BF00ED00E012
:100A3000A6380000FE3700001338000028380000F8
:100A400042380000E00100105F380000B5380000B7
:100A5000D0380000E9380000174B10B59C6A240C10
:100A600028D0164801F0D7FE154801F0D4FE2046E4
:100A700001F0F8FEA10502D5124801F0CCFEE20516
:100A800002D5114801F0C7FE230702D50F4801F037
:100A9000C2FE600702D50E4801F0BDFEA10702D5D7
:100AA0000C4801F0B8FEE20704D50B48BDE8104041
:100AB00001F0B1BE10BD00BF00ED00E00339000041
:100AC000FE37000014390000283900003E390000CC
:100AD000563900007A3900008D3900000C4B034074
:100AE00013B14FF0FF30704720F0604222F0030353
:100AF00043F0010239B910F0020F0CBF4FF08040F3
:100B00004FF0004001E04FF040401043704700BFFD
:100B1000010000E038B5FFF7E1FF0446FFF7D6FE1D
:100B2000084A00238342114609D052F8045B25F09D
:100B3000005525F00205AC4202D00133F2E7002156
:100B4000084638BD082000E0044B1868C0F30721B0
:100B5000D1F1010038BF0020704700BF90ED00E0E8
:100B600073B5044602AD45F8042D01F0A3F8204604
:100B70003A2101F079F8013D0DF1070615F8011F42
:100B8000204601F097F8B542F8D120463B2101F00C
:100B90006BF87CBD064B0749DA6822F48020D860E8
:100BA000D1F8003223F00402C1F80022704700BFE0
:100BB000F0ED00E0E001001010B500214FF43E72AE
:100BC000234802F0FAFB234B2349DA6842F0807095
:100BD000D8600C680023200F03F1606202F5817178
:100BE0000C0183420AD0002121606160A2680133B8
:100BF00022F4D77121F00102A260EDE7FFF766FE53
:100C0000164A1368C3F30321401815490023834291
:100C100004D0002441F8044B0133F8E7106840F099
:100C2000030414600F4C0822E27784F8222084F831
:100C30002320FFF7AFFF074B0022D96821F40030D3
:100C4000D86084F82020D96841F48030D86010BD85
:100C5000E0010010F0ED00E0001000E0002000E0F6
:100C6000082000E000ED00E008B5174BD3F80022A3
:100C700042F00400C3F80002D3F84832198821F08A
:100C80000F0290B24FF28031884210D15B8848F653
:100C90001102934202D0501C834208D1082000F078
:100CA000A0FE0A48C16841F48023C36008BD00F07B
:100CB0009BFE0549D1F80032C1F8640243F00802F6
:100CC000C1F80022EAE700BFE0010010F0ED00E00B
:100CD000024BD3F8000200F004007047E00100105E
:100CE000004870474C0400108920704710B500F090
:100CF00075FEC0B2811E162924D8DFE801F00C254C
:100D0000250E1023232323231223232323232323EA
:100D1000230C0C0C0C00022010BD0A2010BD042076
:100D200010BD0A4B186B0023094ADC0052F833103F
:100D3000014204D0054812190163107910BD013336
:100D4000042BF1D1112010BD0B2010BD00ED00E0EF
:100D5000AC37000010B500F041FEC0B2C11E03293F
:100D60002FD8DFE801F002212427164B1648DC6A51
:100D700001F051FD154801F04EFD204601F072FDD5
:100D8000002C02DA124801F046FDA30702D51148F3
:100D900001F041FD60000FD50F4801F03CFDFFF769
:100DA000AFFDFFF7FFFD05E0FFF7AAFD04E0FFF749
:100DB000F9FD01E0FFF750FE0848BDE8104001F0E2
:100DC0002ABD10BD00ED00E0A8390000FE3700008C
:100DD000B8390000C9390000E0390000EC390000E2
:100DE00010B5384CD4F80032D4F8481223F0020081
:100DF000C4F80002C4F85012FFF7A6FE324B08B93F
:100E00005A6801E04FF0FF32C4F854229868C4F8E1
:100E100058021C68C4F30721481EFFF763FDFFF763
:100E200093FE18B9284BDA68500900E00020254CE1
:100E3000C4F85C02FFF788FE10B923490B6900E093
:100E40000023C4F86032FFF77FFE1F4C38B9626898
:100E500022F00100606000F0CAFD00F0CBFD2168C7
:100E6000C1F30723581EFFF73DFDFFF76DFE08B9DC
:100E7000154CE060FFF768FE10B9144A1248026191
:100E8000FFF762FE40B910494B6843F003044C6021
:100E900000F0ADFD00F0AEFD0A4CD4F800221207C0
:100EA0000CD5D4F8000220F00801D4F86402C4F88C
:100EB000001200F096FD0023C4F86432BDE8104033
:100EC000FFF768BEE001001090ED00E03F00000178
:100ED00038B5FFF739FE244C38B9636823F00100B8
:100EE000606000F084FD00F085FD21681F4CC1F3B7
:100EF0000722501EFFF7F6FCD4F85C52FFF724FEE1
:100F000010B9194B6D01DD60D4F86042FFF71CFE8B
:100F100008B915480461154CD4F85802FFF7E2FCF3
:100F2000D4F85442FFF710FE28B90F494C6000F086
:100F30005EFD00F05FFD0D4B1A4611680C4804334E
:100F400081420C4902D18B421A46F5D3074B8A1ACB
:100F5000D3F8680208498242C8BFC3F86822CA6849
:100F600022F40033CB6038BD90ED00E0E0010010CA
:100F7000EFBEADDEE0030010F0ED00E0014BD3F872
:100F800048027047E0010010014BC3F84802704767
:100F9000E00100100B4BD3F848221846118801F4E9
:100FA0007841B1F5684F05D0B1F5704F02D0B1F579
:100FB000784F03D1131DC0F8483270470232C3F88E
:100FC00048227047E0010010044BD3F84802018822
:100FD000B1F53E42534253EB02007047E00100106E
:100FE000044BD3F84802D3F85012401A18BF01201E
:100FF000704700BFE0010010084B4BF6AB62D3F81E
:1010000048020188914206D04BF6FF6399420CBF1B
:101010000220002070470120704700BFE00100104F
:10102000074A30B5D2F81812D2F81052D2F814424A
:10103000D2F80C22846080E82400C16030BD00BF7B
:10104000E0010010014BC3F80C027047E0010010F2
:1010500008B500F0CCFC064BD3F80002D3F8002210
:1010600000F0020022F00201C3F8001208BD00BF28
:10107000E001001038B50D4C05460C21D4F83C2297
:10108000FFF76EFD28460D21D4F84022FFF768FDDA
:1010900028460E21D4F84422FFF762FDD4F84822F6
:1010A00028460F21BDE83840FFF75ABDE001001087
:1010B00070B5064C064604F1440514F8011F30468D
:1010C00000F0F8FDAC42F8D170BD00BFEB0300109A
:1010D00070B5064C064604F14405304600F006FEA5
:1010E00004F8010FAC42F8D170BD00BFEB03001053
:1010F000194B70B50024022905461C6008D001D3A5
:10110000042904D904221A604FF0FF3400E00124BE
:101110001868F8B928462146FFF7FCFC0646C8B90E
:10112000FFF7D4FB0D4A3346834216460CD052F8E3
:10113000041BC90701D50133F6E72EB12846214625
:10114000FFF7CCFC306070BD03480268082AB8BFC6
:101150000822026070BD00BFDC010010082000E022
:101160000C4B0022022910B51A6003D004D30429C5
:1011700002D806E0114605E0042119604FF0FF3166
:1011800000E001211C681CB9FFF7C4FC00B1046039
:1011900010BD00BFDC010010022A98BF1F4B70B5C4
:1011A00094BF9D5C00254B1E0B4206460C4606D1A3
:1011B00048423040864202D1691F022905D9184BA6
:1011C00019680429B8BF042126E0304621462A4682
:1011D000FFF752FB08BB134A1368190F00F1606256
:1011E00002F581731B01884211D09A6812F00F0238
:1011F00001D00130F2E7012C02D964080132FAE78C
:101200005A605868904202D11E609D6070BD044BC8
:1012100019680829B8BF0821196070BDEC370000B3
:10122000DC010010001000E0022A98BF114B10B53D
:1012300094BF9A5C00224C1E0C4006D14B420340E6
:10124000984202D1531F022B06D90B480268042A88
:10125000B8BF0422026010BDFFF70EFB40B104606E
:101260004460816821F4D77323F00102826010BDCD
:1012700010BD00BFEC370000DC01001040F2B920C7
:101280007047000000487047EF340000034B0448EB
:101290001A68111A03488B1058437047D80400107D
:1012A000C8000010398EE338034B1868C1680A7D06
:1012B00002F00100704700BFD804001008B5FFF726
:1012C000F3FF0028FBD0024B1868C168087808BDFE
:1012D000D8040010054B1968CB681A7D02F0200174
:1012E000CAB2002AF9D0C0B218707047D8040010F2
:1012F00010B500F073FB0446FFF7C8FFE3B21530EA
:10130000191A4842484110BD024B1868C1688B68E1
:10131000704700BFD8040010024B586800F001006D
:10132000704700BFD8040010054B5868820704D4EA
:1013300000F0010181F0010070470020704700BFFC
:10134000D804001008B5FFF7EFFF28B1034B186869
:10135000C1680A6A02F0010008BD00BFD80400108D
:1013600008B5FFF7E1FF20B1024B07221868C168FA
:101370000A6208BDD80400102DE9F04F87B004467A
:1013800000210C2203A802F018F895492046FFF727
:1013900047FA20469349FFF743FA08B10323049321
:1013A00020469149FFF73CFA08B1012004902046FD
:1013B0008E49FFF735FA08B10221049120468C4985
:1013C000FFF72EFA08B10022049220468949FFF760
:1013D00027FA08B10127049720468749FFF720FA2A
:1013E00008B10223049320468449FFF719FA08B193
:1013F0000320049020468249FFF727FAD8B10E3027
:10140000002310F8011BA9B17E4A0025156010F8D1
:10141000011C3039CEB2092E02D90927176029469E
:1014200012681AB177490020086003E00A2707FB19
:101430000313E6E7059320467349FFF7F1F908B176
:1014400001220392049F242179437048704A039F2C
:101450004318136027B1516841F001035360BBE0AA
:101460006C4A1C69D2F8C4502543C2F8C450425893
:101470005969106820EA010414605869156800F081
:10148000553129431160DA68102582F82850DC684C
:1014900001212172DA6803201073059A002A5BD0BB
:1014A0005D4C20684FEA101CBCFBF2F402FB04F018
:1014B00060453AD016014FEA0C2C01960D464FF0CC
:1014C000FF384FEA011E16460120884228D24FEA13
:1014D0000619B9FBFEFA0AEB020BBCFBFBF909F19A
:1014E000800A4FEA1A294FEA091A00FB0AFB4FEA61
:1014F0000B1BBBFBFEFBDA44DDF804B0BCFBFAFAC5
:10150000CBEB0A0ABAF1000FB8BFCAF1000AC24514
:1015100003D207460D464C46D0460130B618D4E7F4
:1015200001311029CDD147EA0515D868EDB2017B0C
:1015300041F08002E1B2C4F3072402730170047128
:1015400080F82850D868324C027B02F07F0101738A
:10155000606840F0020262605A6899691468186A0B
:1015600024EA01040840044314609A68D9691468A5
:10157000186A24EA0104084044EA00011160DA68AC
:10158000117B107B00F07F001073DA68012050603F
:10159000DB681973FFF7E4FEFFF778FE411DC8B260
:1015A000C2B253B2002B06DA1C4B00F00F01CB186D
:1015B0000021197606E003F1604101F56143002145
:1015C00083F8001352B200F01F000123510903FAFF
:1015D00000F2134840F8212007B0BDE8F08F00BFAB
:1015E000FD3900000F3A0000243A00003A3A0000AA
:1015F000503A00005B3A0000663A0000713A000081
:10160000EE390000DC0100107C3A0000C800001038
:10161000D804001000C00F4058010010FCEC00E09E
:1016200000E100E038B5134B1C685D68DA6822F011
:101630007F4040B100221A60D96821F07F40586095
:101640009A6005221A60FFF72FFE0A4B30B9D9685D
:1016500021F07F4010B11A68D103F4D525F07F4501
:101660005D601C60FFF720FE10B1FFF727FEDAE790
:1016700038BD00BF10E000E038B50C4C00232360FB
:101680000546FFF799FA236873B903F16042013305
:10169000082102F56140232B80F80013F5D128467C
:1016A000BDE83840FFF768BE38BD00BFDC01001060
:1016B00040F2C65070470000004870478B3A000067
:1016C0001F4A002370B542F8043B1E4B064603F147
:1016D000200518685968144603C40833AB422246F3
:1016E000F7D11868184920600B68184C0025D807F6
:1016F00025601BD5164800F04FFA00F041FA25602E
:1017000041F289300138104A02D01168C907F9D472
:1017100013680E4813F0010F01D005220260016822
:1017200021B9074B186840F001021A6007490B689D
:1017300023B93046BDE87040FFF79EBF70BD00BFC3
:10174000A801001052400000F0ED00E0DC010010A4
:10175000AC01001000487047AC01001008B5FFF75D
:101760004BFC0138C0B201288CBF0020012008BD0D
:101770001FB5FFF741FC04466846FFF751FC012CFA
:1017800003D1684600F094F806E0022C03D16846C5
:1017900000F004F800E0002004B010BD10B58CB0DB
:1017A0000446FFF7EBFB334B40F00100984209D1B0
:1017B00020686368A168029002A80393049100F076
:1017C0003BFD55E02C49884209D123686168A26835
:1017D00002A802930391049200F052FD48E0274AC8
:1017E00090420CD12068089001F0FAFD0990A068A1
:1017F00062680B9008A80A9200F0F0FC38E0204BD9
:10180000984208D12068009001F0EAFD01906846F6
:1018100000F0B0FD2CE01B49884209D120686368C4
:10182000A168059005A80693079100F061FD1FE0EF
:10183000154A904203D1206800F046FD18E0134B92
:10184000984204D194E8030000F076FD10E01049BE
:10185000884204D194E8030000F0AAFD08E00D4A94
:10186000904204D194E8030000F0CAFD00E000209B
:101870000CB010BDAD1B0000B11B0000B51B00007B
:10188000BD1B0000C51B0000C91B0000CD1B0000D4
:10189000C11B0000B91B000010B50446FEF7F6FDA1
:1018A000031EA8BFC3EB0400BDE81040FFF7CABB8E
:1018B00030B5036899B0092B00F084800FD8022B53
:1018C00051D003D8012B40F084802CE0052B50D060
:1018D000062B7ED14568284600F0D2FC4DE00C2B4B
:1018E00051D00CD80A2B74D1436800201A6859686B
:1018F000039001A80192029100F0FAFC37E00E2B50
:101900005CD040F20114A34263D145686C682D6835
:10191000FFF720FF242C34BF22462422014628460C
:1019200001F042FD4EE040680268416804924A07B7
:1019300005D411F0080405D04FF4027403E04FF40D
:10194000C06400E0234611F0020F806818BF022334
:1019500043EA04024FF4DB71059004A80692079154
:1019600000F03CFC03E04468206800F0ADFC044655
:1019700030E04568284600F05FFC044650B3A86894
:10198000FFF78AFF26E0436808A9186800F0D4FC36
:101990000446F8B1FEF77AFDE0B99DF841109DF8D4
:1019A0004220080440EA02239DF843209DF840109D
:1019B000134343EA0160FFF745FB0BE0406800F08A
:1019C000D9FCD4E7FFF7E6FA0020FFF73BFB012440
:1019D00000E00024204619B030BD0000EFF3058080
:1019E000704780F311887047EFF311807047BFF3A1
:1019F0004F8F7047BFF36F8F7047564800F003B8A2
:101A0000554800F000B81EF0040F0CBFEFF308813A
:101A1000EFF30981514A116087465148514A0068E5
:101A2000104200F00380504900F000B84F480268AF
:101A300012F0010F1EBF42F00202026000F056B821
:101A400042F0010202604020DFF820C1484A1346FC
:101A50006CE902230138FBD1EFF3088245480260AC
:101A6000424880F3088844482DE90050B1E80C5002
:101A7000A0E80C50A0E8F00F3CC940F8082B38C093
:101A800015F4007F18BF043140F8101CFEF75CFD10
:101A90003A4850F80C1C026822F4007241F8042DF8
:101AA00030E90C0021E90C0050F808CD41F804CDD4
:101AB00030E9F00F30E90C5021E90C50BDE800503E
:101AC0002C48026882F308881EF0040F0CBF81F3D3
:101AD000088881F309882548016821F00101016027
:101AE000BFF34F8FBFF36F8F00F01BB81C48006827
:101AF00010F4806F40F015808869028802F4784203
:101B0000B2F5684F08D0B2F5704F05D0B2F5784FF6
:101B100002D000F1020001E000F10400886100F051
:101B200000B80F4801680160416841607047FFF7E5
:101B300067BFFFF765BFFFF763BFFFF75EBFFFF744
:101B40005CBFFFF75ABFFFF758BFFFF756BFFFF75D
:101B500054BF00002D1A00001B1A0000E8030010FB
:101B600028ED00E018180000CC370000E00300105A
:101B7000EFBEADDEE4030010EC0300102C040010F7
:101B800082B001A940F20510ABBE00280CBF01983D
:101B90004FF0FF3002B0704782B0009021200190DA
:101BA000694640F20110ABBE02B07047FFBE7047FD
:101BB000FFBE7047FFBE7047FFBE7047FFBE704755
:101BC000FFBE7047FFBE7047FFBE7047FFBE704745
:101BD000A0F16103052B01D857387047A0F14101EE
:101BE000052901D8373870473038C2B2092A07D9D9
:101BF00004480368022BB8BF022303604FF0FF3094
:101C0000704700BFDC0100108A18016042608160EB
:101C100070470368836070478368436070478368D8
:101C20004068834294BFC3EB00000020704700006F
:101C300038B50D460446FFF7F2FFA84208D2054921
:101C400063680A68581C012AB8BF0122A0600A60B4
:101C500038BD00BFDC01001082684068824294BF3A
:101C6000002001207047000070B5074D00230E468C
:101C7000012104462B60FFF7DBFF286818B9A16833
:101C800001F8016BA16070BDDC01001070B5084E59
:101C90000024012105463460FFF7CAFF336823B9E9
:101CA000A96811F8010BA96070BD204670BD00BF86
:101CB000DC01001070B50B4E00230D4602210446D6
:101CC0003360FFF7B5FF306850B9074A290905F0BE
:101CD0000F05A368505C525D18705A700233A36000
:101CE00070BD00BFDC0100107640000070B5114EE1
:101CF0000023022104463360FFF79AFF306808B1E1
:101D0000002514E0A1680878FFF762FF336802013C
:101D1000D5B22BB9A0684078FFF75AFF2843C5B267
:101D200004490A68002AEBD1A368981CA0602846E1
:101D300070BD00BFDC010010F8B50B4F00230C464E
:101D40001146054616463B60FFF772FF386848B9F2
:101D5000A619B44206D014F8012BA96801F8012B8A
:101D6000A960F6E7F8BD00BFDC01001038B50546F4
:101D700008460C4601F034FB214602462846BDE8E1
:101D80003840FFF7D9BF0000F8B5002504462E46BD
:101D9000134F002320463B60FFF778FF396861B995
:101DA000FFF716FF3A6832B1A0682368984204D959
:101DB000411EA16001E000EB0515094802680AB95F
:101DC0000136E5E7002361680360A068884288BFA8
:101DD000A1601EB9024A0325156035462846F8BDA4
:101DE000DC0100102DE9F04180460E4619B9BDE82E
:101DF000F041FFF75FBF4FF07F430024334203D130
:101E000001341B0A042CF9D1C4F10304E500631C5E
:101E10000DD026FA05F1074F00203860C9B24046C0
:101E2000FFF748FF3A68013C083D002AEFD0BDE8C3
:101E3000F08100BFDC0100100A4B70B500220C1EBF
:101E400006461A601D4603DA2D216442FFF70CFF97
:101E5000286828B930462146BDE87040FFF7C2BF68
:101E600070BD00BFDC01001070B50B4D00230E46A5
:101E700004462B60FFF7D3FE294608B901222A60E9
:101E8000086838B9A3681978B14204D1581CA06019
:101E9000012070BD002070BDDC010010F8B5134CAE
:101EA00000252D2107462560FFF7DEFF2368064643
:101EB0001BB93846FFF768FF00E0284622680B4947
:101EC0008AB936B900280FDA03230B606FF000409F
:101ED000F8BDB0F1004F04D9032008604FF0004076
:101EE000F8BD4042F8BD0020F8BD00BFDC01001085
:101EF0002DE9F041124E0023144605468846336012
:101F0000FFF78DFEA04201D20120306037687FB913
:101F1000AE6841463046224601F06AFA804638B93A
:101F20002846FFF77CFEA04205D0315D3A2902D059
:101F30000020BDE8F0813419AC600120BDE8F081DB
:101F4000DC010010054B1868042803D0082804D1D0
:101F5000034800E00348FEF735BA7047DC01001083
:101F60008A4000008640000070B50646FEF794FAED
:101F70000F4C002305462360FFF788FE307220686F
:101F8000A8B92C21284600F0BFF8216879B9284665
:101F900000F0ACF8226830604AB928462C2100F0E5
:101FA000B3F823681BB9284600F0A0F8706070BD34
:101FB000DC01001010B5094C0246002303C9236060
:101FC000FFF732F9206818B1BDE81040FFF7BABF3B
:101FD0000348BDE81040FEF7F5B900BFDC01001072
:101FE0008E40000010B5094C0246002303C923604F
:101FF000FFF7D2F8206818B1BDE81040FFF7A2BF84
:102000000348BDE81040FEF7DDB900BFDC01001059
:102010008E4000001FB5164C002301A82360FFF777
:10202000A3FF206808B113481DE09DF80C1031395A
:10203000032917D8DFE801F0020D0F11019802996A
:10204000FFF756F8226812B1FFF77CFF0DE00A484F
:1020500009E0002002E0012000E0022001A9FFF7D2
:10206000C1FF02E00548FEF7ADF9002004B010BD45
:10207000DC010010864000008E400000EE340000BD
:102080001FB5164C002301A82360FFF76DFF2068E1
:1020900008B113481DE09DF80C103139032917D8F9
:1020A000DFE801F0020D0F1101980299FFF758F8CF
:1020B000226812B1FFF746FF0DE00A4809E0002050
:1020C00002E0012000E0022001A9FFF773FF02E017
:1020D0000548FEF777F9002004B010BDDC010010C0
:1020E000864000008E400000EE34000010B5054C24
:1020F00000232360FFF748FE2168002918BF002055
:1021000010BD00BFDC01001008B5FFF7ADFE28B917
:10211000034B1A68042AB8BF04221A6008BD00BF26
:10212000DC01001070B50A4C00230D460646236002
:10213000FFF7DCFF2860206848B92C213046FFF704
:10214000E3FF216819B93046FFF7D0FF686070BD22
:10215000DC01001038B5074C002305462360FFF76B
:10216000E1FF206828B928463A21BDE83840FFF74A
:10217000CBBF38BDDC01001070B5FEF78DF9064607
:10218000FEF72EFF10B9FEF71FFF68B90024084DB7
:10219000002330462B60FFF7A9FF296809B9FEF735
:1021A000F3FE44F0030070BDFEF7F4FE0424EEE7F6
:1021B000DC01001008B5FEF797F9FEF70FF948B1FA
:1021C000FEF72EF908B9FEF735F90220FEF74CF9B3
:1021D000002008BDFEF72EF9012008BD38B50546E0
:1021E000FEF75EF913490446FFF7C0FD2046296853
:1021F000FFF7F8FD20462F21FFF736FD69682046DE
:102200000131FFF7EFFD20462C21FFF72DFD204681
:10221000A968FFF7E7FD20462C21FFF725FD2046A2
:10222000E968FFF7DFFDFEF743F9BDE83840FFF747
:10223000C1BF00BFB440000038B50546FEF730F915
:102240000E490446FFF792FD20462968FFF7CAFDB4
:1022500020462C21FFF708FD20466968FFF7C2FDE4
:1022600020462C21FFF700FD2046A968FFF7BAFDA4
:10227000FEF71EF9BDE83840FFF79CBFAC400000F8
:1022800038B50546FEF70CF90E490446FFF76EFD1A
:1022900020462968FFF7A6FD20462C21FFF7E4FC25
:1022A00020466968FFF79EFD20462C21FFF7DCFCE5
:1022B0002046A968FFF796FDFEF7FAF8BDE838401A
:1022C000FFF778BFC340000038B50446FEF7E8F8D2
:1022D00006490546FFF74AFD28462146FFF782FDDD
:1022E000FEF7E6F8BDE83840FFF764BF9140000014
:1022F00038B50546FEF7D4F80E490446FFF736FD1B
:1023000020462968FFF76EFD20462C21FFF7ACFC24
:1023100020466968FFF790FD20462C21FFF7A4FCBA
:102320002046A968FFF788FDFEF7C2F8BDE83840EF
:10233000FFF740BFCA40000070B50D460646FEF7E5
:10234000AFF80B490446FFF711FD20463146FFF771
:1023500049FD20462C21FFF787FC20462946FFF740
:1023600041FDFEF7A5F8BDE87040FFF723BF00BFB1
:10237000BB40000038B50546FEF792F80B4904460D
:10238000FFF7F4FC20462968FFF72CFD20462F219B
:10239000FFF76AFC696820460131FFF723FDFEF76D
:1023A00087F8BDE83840FFF705BF00BFD240000006
:1023B00070B505460E46FEF773F810490446FFF760
:1023C000D5FC20462946FFF70DFD2F212046FFF7BB
:1023D0004BFC284601F004F8411C2046FFF702FDA3
:1023E00020462C21FFF740FC20463146FFF7FAFC3F
:1023F000FEF75EF8BDE87040FFF7DCBE99400000D4
:1024000070B50D460646FEF74BF816490446FFF731
:10241000ADFC20463146FFF7E5FC2F212046FFF7B3
:1024200023FC304600F0DCFF411C2046FFF7DAFCBD
:1024300020462C21FFF718FC20462946FFF7D2FC46
:102440002F212046FFF710FC284600F0C9FF411C51
:102450002046FFF7C7FCFEF72BF8BDE87040FFF7FA
:10246000A9BE00BFA340000070B5FEF715F80446F2
:10247000FFF714FD2C2106462046FFF7F5FC50B16E
:102480002046FFF70BFD0949054602222046FFF7CB
:102490002FFD044601E00446054630462946FDF777
:1024A000EFFF2046FDF7B0FF032070BDA040000005
:1024B00037B5FDF7F1FF0B4C002369460546236055
:1024C000FFF730FE206818B10748FDF77BFF06E0F4
:1024D000FDF768FF9DE80600284600F048FA002056
:1024E0003EBD00BFDC0100108640000037B5FDF79F
:1024F000D3FF0C4C0023694605462360FFF72AFEF4
:10250000206808B1084808E028469DE8060000F069
:102510005BFA08B1054800E00548FDF753FF0020CD
:102520003EBD00BFDC010010864000008E40000070
:10253000DB40000037B5FDF7AFFF124D00236946C1
:1025400004462B60FFF7EEFD286818B920463A21B3
:10255000FFF7DAFD296809B10B480EE020469DE837
:10256000060000F059FA08B1084806E02046FFF7D7
:1025700073FB08B1064800E00648FDF723FF002082
:102580003EBD00BFDC010010864000008E40000010
:1025900078340000DB4000002DE9F8430446FDF7E5
:1025A0007BFF251D95E8A001AF42064603D2ED1B37
:1025B0004FF06D0903E00025A8464FF06C09FDF7C8
:1025C000F1FE3046FFF72BFB404538BF8046A8455B
:1025D00088BF4FF06C093046494688BFA846FFF7D0
:1025E00043FB21683046C9194246BDE8F843FFF76E
:1025F000A3BB0000F7B504460E4608461022002192
:1026000000F0DBFE20463A21FFF72EFC30B91F48D0
:102610000268042AB8BF0422026036E020461C4942
:102620000422FFF765FC0028F1D020463A21FFF78D
:102630001BFC0028EBD0154D0023204615490A222B
:102640002B60FFF755FC074690B120463A21FFF773
:102650000BFCA0B10F4830600C480268AAB969466B
:102660002046FFF75FFD009B0199B360F1600CE02D
:1026700020463A21FFF7F8FB08B13846EBE7296816
:102680000429B8BF04212960E5E7FEBDDC01001084
:10269000DF400000F34000007FB5FDF7FDFE354947
:1026A00009220446FFF724FC064668B1FEF71CFB2E
:1026B0000446FDF7F5FE30490546FFF757FB28466F
:1026C0002146FFF78FFB51E020462C490422FFF7FB
:1026D0000FFC002847D0FDF7DFFE3A210446FFF744
:1026E000C3FB002833D0204625490A22FFF700FC0F
:1026F0000546A0B1234CFDF7CFFE69462660FFF7E3
:1027000079FF22681AB9009B0BB104202060216870
:10271000E9B9FEF7D1FF0090FEF7CAFF1EE02046A0
:1027200019490822FFF7E4FBE8B1164CFDF7B4FEA7
:1027300069462560FFF75EFF236833B900981349A7
:1027400000F043FE08B104202060216809B1104860
:102750000AE0FEF797FD0090FEF790FD01906846B5
:10276000FFF71AFF02E00B48FDF72CFE002004B033
:1027700070BD00BFE940000009410000E4400000D6
:102780004A410000DC01001041410000FE40000011
:1027900086400000EE34000010B5FDF781FE5421A4
:1027A0000446FFF761FAFDF765FE01462046FFF794
:1027B00081FA2046FEF75EFCFDF77AFE022010BD8E
:1027C00008B5FDF76DFEFEF773FC002008BD0000A4
:1027D00010B5FDF761FE0446FEF77AFC2046FFF7D0
:1027E0003BFA08B1034800E00348FDF7EBFD002089
:1027F00010BD00BF783400008E40000008B5FFF720
:10280000BBFC430703D5BDE80840FFF7C5BFFEF793
:102810002BFA032008BD38B50446FEF77DFD50B104
:10282000FDF71AFE38B1013C14F8010F10B1FEF7A4
:1028300051FDF9E738BDFDF733FE4F210546FFF79F
:1028400013FA204600F0CCFD21460246284600F04F
:102850008EF82846FFF700FA18B9BDE83840FDF7B2
:1028600027BE38BD10B586B00B220446694603A8C2
:10287000FFF7CAF903A80849FFF778FA03A8214629
:10288000FFF7B0FA03A80021FFF7EEF96846FFF75B
:10289000C2FF06B010BD00BF554100002DE9F04158
:1028A000064601EB02080C46444524D0134D002394
:1028B00030462B60FFF7EAF92F6801465FB97D28A3
:1028C00009D13046FFF7E2F9296819B980F02000F4
:1028D000C1B200E03946094A136813B10020BDE8CF
:1028E000F0812046651C00F0CAF8FEF7B1FB002815
:1028F000F4D12C46D8E70120BDE8F081DC010010BE
:10290000F8B507468E180C46B44214D00B4D002380
:1029100038462B60FFF7EAF90146286808B1002025
:10292000F8BD2046651C00F0AAF8FEF791FB0028D0
:10293000F5D12C46E8E70120F8BD00BFDC0100100E
:10294000F8B505468C180846A0420CD0461C00F08D
:1029500090F80746FEF77CFB38B928463946FFF762
:10296000A9F93046F0E70120F8BD0020F8BD022AA1
:1029700073B50546144602D0042A22D10EE011F0A8
:1029800001061ED1084600F071F8ADF80200FEF70E
:102990005FFBA0B928460DF102010BE011F0030620
:1029A0000FD1084600F060F80190FEF751FB30B9F6
:1029B000284601A92246FFF7C3FF012003E0304665
:1029C00001E0FFF7BDFF7CBD022A13B50C4602D023
:1029D000042A1ED10CE0CB071BD40DF10201FFF736
:1029E0008FFFC0B12046BDF8021000F046F809E0A4
:1029F0008B070ED101A9FFF783FF60B12046019933
:102A000000F039F8FEF724FBD0F1010038BF0020B8
:102A100001E0FFF775FF1CBD022A13B50C4602D07A
:102A2000042A1ED10CE0CB071BD40DF10201FFF7E5
:102A300035FFC0B12046BDF8021000F01EF809E0D5
:102A40008B070ED101A9FFF729FF60B1204601993C
:102A500000F011F8FEF7FCFAD0F1010038BF0020B9
:102A600001E0FFF71BFF1CBD00687047008880B2C3
:102A700070470078704701607047018070470170AF
:102A80007047000086B0034600918DF807304FF480
:102A90006D43CEF200039B6805934FF46D43CEF275
:102AA00000039B68002B22D1059B03934FF08053BA
:102AB00005934FF0000304930FE0049B4FEA830358
:102AC000059AD318049A4FEA820203998A18126869
:102AD0001A60049B03F101030493049B302BECD98F
:102AE0004FF46D43CEF200034FF080529A609DF98F
:102AF000073003F110034FEA8303059AD318009AB5
:102B00001A6006B0704700BF4FF44043C4F20F0391
:102B10004FF02002C3F8A0214FF44043C4F20F034A
:102B2000D3F8A03103F02003002B0AD000BF4FF4EC
:102B30004043C4F20F03D3F8A03103F04003002B4D
:102B4000F5D04FF44043C4F20F034FF00202C3F834
:102B500004214FF44043C4F20F034FF00002C3F8C6
:102B6000A8214FF44043C4F20F034FF00002C3F812
:102B7000AC214FF44043C4F20F034FF00102C3F8FD
:102B80000C214FF44043C4F20F034FF00B02C3F883
:102B900084204FF44043C4F20F034FF0AA02C3F85D
:102BA0008C204FF44043C4F20F034FF05502C3F89A
:102BB0008C204FF44043C4F20F034FF00102C3F8DE
:102BC00080204FF44043C4F20F034FF0AA02C3F831
:102BD0008C204FF44043C4F20F034FF05502C3F86A
:102BE0008C2000BF4FF44043C4F20F03D3F8883069
:102BF00003F08063002BF5D04FF44043C4F20F0381
:102C00004FF00302C3F880204FF44043C4F20F0397
:102C10004FF0AA02C3F88C204FF44043C4F20F03D4
:102C20004FF05502C3F88C2000BF4FF44043C4F26C
:102C30000F03D3F8883003F04073002BF5D04FF426
:102C40004043C4F20F034FF00502C3F808214FF4CC
:102C50004043C4F20F0348F2DE72C0F22842C3F8C8
:102C6000C4204FF44043C4F20F034FF00002C3F8F6
:102C7000C8214FF44043C4F20F034FF44042C4F262
:102C80000F02126822F4704222F03A0242F44052DB
:102C900042F03A021A60704700B583B0019000F02C
:102CA0000BF80346002B01D000F01CF8019B002B11
:102CB00001D000F055F9FEE708B5FDF749FB0346E2
:102CC000184608BD30B585B001900091019C009D6B
:102CD00020462946ABBE04460394039B184605B024
:102CE00030BD00BF00B585B06B464FF018001946E7
:102CF000FFF7E8FF0346184605B000BD0749084A3C
:102D0000084B9A42BEBF51F8040B42F8040BFFF780
:102D1000F8BF054880470548004700005C410000B7
:102D2000C800001064010010092B0000050300001A
:102D3000FEE7FEE7FEE7FEE7FEE7FEE7FEE7FEE76B
:102D4000FEE7FEE7FEE7FEE7FEE7FEE7FEE7FEE75B
:102D5000FEE7FEE7FEE7FEE7FEE7FEE7FEE7FEE74B
:102D6000FEE7FEE7FEE7FEE7FEE7FEE7FEE7FEE73B
:102D7000FEE7FEE7FEE7FEE7FEE7FEE7FEE7FEE72B
:102D8000FEE7FEE7FEE7FEE7FEE700BF86B0019044
:102D90000091019BB3F1FF3F39D0019B03F16043E8
:102DA000A3F51C230593059B4FEA13130493059B7E
:102DB00003F00F034FEA430303934FF44043C4F27D
:102DC00002034FF44042C4F20202049952F8211067
:102DD0004FF00300039A00FA02F26FEA0202114078
:102DE000049A43F822104FF44043C4F202034FF414
:102DF0004042C4F20202049952F821100098039A4A
:102E000000FA02F21143049A43F8221000E000BFD6
:102E100006B0704786B001900B468DF80330019BD9
:102E2000B3F1FF3F00F08580019B03F16043A3F500
:102E30001C230593059B4FEA53130493059B03F052
:102E40001F0303939DF8033003F004034FEA930339
:102E500002934FF44043C4F202034FF44042C4F2E1
:102E60000202049901F11A0152F821100298039A02
:102E700000FA02F26FEA02021140049A02F11A0209
:102E800043F822104FF44043C4F202034FF440428F
:102E9000C4F20202049901F11A0152F821100298B9
:102EA000039A00FA02F21143049A02F11A0243F85B
:102EB0002210029B002B3DD1059B4FEA1313049374
:102EC000059B03F00F034FEA430303934FF4404382
:102ED000C4F202034FF44042C4F20202049901F129
:102EE000100152F821104FF00300039A00FA02F289
:102EF0006FEA02021140049A02F1100243F8221014
:102F00004FF44043C4F202034FF44042C4F20202C1
:102F1000049901F1100152F821109DF80300039A61
:102F200000FA02F21143049A02F1100243F822104F
:102F300000E000BF06B0704782B001900091009B96
:102F4000002B05D0019BDB68019A52681A6004E0EF
:102F5000019B1B69019A52681A6002B0704700BF5A
:102F600000B599B012AB18464CF23201C2F2090119
:102F70004FF0010200F08AF80CAB18464CF2340115
:102F8000C2F209014FF0010200F080F806AB1846CA
:102F90004CF23501C2F209014FF0010200F076F85F
:102FA0006B4618464CF23701C2F209014FF001029C
:102FB00000F06CF812AB18464FF00101FFF7BCFFB0
:102FC0000CAB18464FF00001FFF7B6FF06AB1846F2
:102FD0004FF00001FFF7B0FF6B4618464FF00101BC
:102FE000FFF7AAFF4FF0960000F01EF812AB18464C
:102FF0004FF00001FFF7A0FF0CAB18464FF00101A6
:10300000FFF79AFF06AB18464FF00101FFF794FF58
:103010006B4618464FF00001FFF78EFF4FF0960009
:1030200000F002F8C6E700BF00B583B00190019B35
:103030004FF47A7202FB03F3184600F003F803B072
:1030400000BD00BF00B585B0019000F0FFF803900F
:1030500000BF00F0FBF80246039BD21A019B9A4284
:10306000F7D305B000BD00BF00B583B00190019853
:103070004FF00001FFF78AFE019B03F01F034FF0A2
:10308000010202FA03F3184603B000BD00B587B091
:103090000390029113468DF80730029BB3F1FF3F76
:1030A00037D0039B029A1A600298FFF7DDFF0246B1
:1030B000039B5A60029B23F01F030593059B03F1BA
:1030C0001802039BDA60059B03F11C02039B1A6143
:1030D000059B03F11402039B5A61059A039B9A60B6
:1030E0009DF807300398194600F016F89DF8073050
:1030F000002B07D0012B0DD102984FF00201FFF7F2
:1031000089FE07E002984FF00301FFF783FE00BF3E
:1031100000E000BF07B000BD82B001900B468DF803
:1031200003309DF80330002B02D0012B0CD015E0AA
:10313000019B9B68019A92681168019A52686FEA34
:1031400002020A401A6009E0019B9B68019A92689A
:103150001168019A52680A431A6000BF02B07047B2
:1031600082B003468DF807304FF46143CEF200037E
:103170009DF907204FEA52129DF8071001F01F0138
:103180004FF0010000FA01F143F8221002B070473D
:1031900000B583B040F2D013C1F200031B68002BCE
:1031A00051D140F2D013C1F200034FF001021A6076
:1031B0004FF44043C4F20F034FF44042C4F20F02F5
:1031C000D2F8C42042F40002C3F8C4204FF4804374
:1031D000C4F209034FF000021A6740F25813C1F21B
:1031E00000031B684FEA930301934FF48043C4F23A
:1031F00009034FF002025A60019A4DF68363C4F24C
:103200001B33A3FB02134FEA934300934FF4804315
:10321000C4F20903009A02F1FF32DA604FF48043EE
:10322000C4F209034FF001025A6043F2C923C0F20D
:1032300000034FF004001946FFF724FC4FF0040090
:10324000FFF78EFF00E000BF03B000BD08B540F2FD
:10325000D013C1F200031B68002B01D1FFF798FFC8
:103260004FF48043C4F209039B68184608BD00BFB1
:1032700082B001904FF48043C4F20903019A9A612D
:103280004FF48043C4F209034FF48042C4F20902B0
:10329000526942F001025A6102B070474FF4804314
:1032A000C4F209034FF48042C4F20902526922F0C9
:1032B00001025A61704700BF4FF48043C4F2090312
:1032C0004FF001021A60704710B582B0FFF7F4FFAB
:1032D00000E000BF40F2D813C1F200031B68002BCE
:1032E00002D1FFF7DBFF37E040F2D813C1F2000351
:1032F0001B681C68FFF7AAFF0346E31A002B21DCBA
:1033000040F2D813C1F200031B68019340F2D813B6
:10331000C1F200031B689A6840F2D813C1F200039F
:103320001A6040F2D413C1F200031B68002BD0D006
:1033300040F2D413C1F200031B68019A5268104690
:103340009847C6E740F2D813C1F200031B681B6818
:103350001846FFF78DFF00BF02B010BD38B50E4D07
:103360000E4B0024E81A8510AC4205D00B4951F8E9
:10337000242090470134F7E700F068F80849094A2B
:10338000541AA5100024AC4205D0054B53F8240074
:1033900080470134F7E738BD5C0100105C01001084
:1033A0005C0100106001001010B50023934203D0AF
:1033B000CC5CC4540133F9E710BD82180346934234
:1033C00002D003F8011BFAE7704710F8012B11F83F
:1033D000013B012A28BF9A42F7D0A2EB03007047B5
:1033E000034613F8012B002AFBD1181A0138704745
:1033F00070B592B10B4605461AB928781978401A6B
:1034000070BD10F8016B1C780131B442F5D1012A6E
:10341000F3D0013A002CEDD1EFE7104670BD30B586
:1034200003780BB1024603E0097871B1002030BD8A
:10343000104603780132002BF8D00023CC5C24B175
:10344000C55CA542F4D10133F8E730BDF8B500BF43
:10345000F8BC08BC9E467047F8B500BFF8BC08BC75
:103460009E4670474D52495F554152545F4D42450B
:10347000445F555342000000453034009927000056
:103480003F00000079210000630000006924000073
:1034900046000000C127000067000000D12700009F
:1034A00047000000B12400006D000000ED24000082
:1034B0004D0000009926000071000000FD2700006B
:1034C0007300000035250000580000008120000036
:1034D0007A000000152000005A000000303132331D
:1034E0003435363738396162636465662009003CDB
:1034F0003F786D6C2076657273696F6E3D22312E58
:1035000030223F3E0A3C21444F43545950452066E7
:103510006561747572652053595354454D20226777
:1035200064622D7461726765742E647464223E0A4D
:103530003C7461726765743E0A3C666561747572BD
:1035400065206E616D653D226F72672E676E752E08
:103550006764622E61726D2E6D2D70726F66696C7C
:1035600065223E0A3C726567206E616D653D227280
:1035700030222062697473697A653D223332222FCA
:103580003E0A3C726567206E616D653D2272312294
:103590002062697473697A653D223332222F3E0AB4
:1035A0003C726567206E616D653D22723222206239
:1035B000697473697A653D223332222F3E0A3C7268
:1035C0006567206E616D653D2272332220626974E9
:1035D00073697A653D223332222F3E0A3C72656759
:1035E000206E616D653D22723422206269747369B8
:1035F0007A653D223332222F3E0A3C726567206E87
:10360000616D653D227235222062697473697A6545
:103610003D223332222F3E0A3C726567206E616D77
:10362000653D227236222062697473697A653D2293
:103630003332222F3E0A3C726567206E616D653D14
:10364000227237222062697473697A653D223332AF
:10365000222F3E0A3C726567206E616D653D2272C5
:1036600038222062697473697A653D223332222FD1
:103670003E0A3C726567206E616D653D227239229B
:103680002062697473697A653D223332222F3E0AC3
:103690003C726567206E616D653D2272313022207B
:1036A00062697473697A653D223332222F3E0A3C87
:1036B000726567206E616D653D2272313122206234
:1036C000697473697A653D223332222F3E0A3C7257
:1036D0006567206E616D653D22723132222062691C
:1036E0007473697A653D223332222F3E0A3C72653B
:1036F00067206E616D653D2273702220626974736C
:10370000697A653D2233322220747970653D2264E6
:103710006174615F707472222F3E0A3C726567208B
:103720006E616D653D226C72222062697473697AE4
:10373000653D223332222F3E0A3C726567206E615E
:103740006D653D227063222062697473697A653DFC
:103750002233322220747970653D22636F64655F85
:10376000707472222F3E0A3C726567206E616D652F
:103770003D2278707372222062697473697A653DA4
:1037800022333222207265676E756D3D22323522FA
:103790002F3E0A3C2F666561747572653E0A3C2FA8
:1037A0007461726765743E0A00000000100000003A
:1037B00011000000040000000500000002000000ED
:1037C000050000000100000005000000ADDEADDED8
:1037D000ADDEADDEADDEADDEADDEADDEADDEADDE91
:1037E000ADDEADDEADDEADDEADDEADDE0605070A7B
:1037F0002A2A4D5055204661756C742A2A000A20E9
:1038000020537461747573205265676973746572AF
:103810003A20000A202020204661756C7420416403
:1038200064726573733A20000A20202020465020DD
:103830004C617A7920507265736572766174696F34
:103840006E000A20202020537461636B696E67202C
:103850004572726F7220772F205350203D20000A4E
:1038600020202020556E737461636B696E6720455C
:1038700072726F7220772F205350203D20000A2053
:103880002020204461746120416363657373000AE2
:1038900020202020496E737472756374696F6E20E6
:1038A0004665746368000A2A2A427573204661756A
:1038B0006C742A2A000A20202020496D70726563EA
:1038C00069736520446174612041636365737300AB
:1038D0000A2020202050726563697365204461745A
:1038E0006120416363657373000A20202020496EC4
:1038F000737472756374696F6E2050726566657457
:103900006368000A2A2A5573616765204661756CF1
:10391000742A2A000A2020202044697669646520E0
:103920006279205A65726F000A20202020556E614E
:103930006C69676E656420416363657373000A2078
:10394000202020436F70726F636573736F72204124
:103950006363657373000A20202020496E76616CD2
:10396000696420457863657074696F6E2052657470
:1039700075726E205374617465000A2020202049FE
:103980006E76616C6964205374617465000A20204E
:103990002020556E646566696E656420496E737497
:1039A00072756374696F6E000A2A2A486172642016
:1039B0004661756C742A2A000A2020202044656222
:1039C0007567204576656E74000A202020205665B4
:1039D00063746F72205461626C652052656164008B
:1039E0000A20202020466F72636564000A004D5251
:1039F000495F554152545F424155443D004D524943
:103A00005F554152545F4D4245445F555342004D0E
:103A100052495F554152545F4D4245445F50395FB2
:103A2000503130004D52495F554152545F4D42452F
:103A3000445F5031335F503134004D52495F55413E
:103A400052545F4D4245445F5032385F5032370028
:103A50004D52495F554152545F30004D52495F55B8
:103A60004152545F31004D52495F554152545F32CB
:103A7000004D52495F554152545F33004D52495FEA
:103A8000554152545F5348415245003C3F786D6C5C
:103A90002076657273696F6E3D22312E30223F3E73
:103AA0003C21444F4354595045206D656D6F7279E8
:103AB0002D6D6170205055424C494320222B2F2FF1
:103AC00049444E20676E752E6F72672F2F44544401
:103AD00020474442204D656D6F7279204D61702002
:103AE00056312E302F2F454E222022687474703AA2
:103AF0002F2F736F75726365776172652E6F7267B2
:103B00002F6764622F6764622D6D656D6F72792D0A
:103B10006D61702E647464223E3C6D656D6F7279C8
:103B20002D6D61703E3C6D656D6F7279207479709A
:103B3000653D22666C617368222073746172743D06
:103B40002230783022206C656E6774683D223078B0
:103B50003130303030223E203C70726F70657274AC
:103B600079206E616D653D22626C6F636B73697A5B
:103B700065223E3078313030303C2F70726F706586
:103B80007274793E3C2F6D656D6F72793E3C6D6548
:103B90006D6F727920747970653D22666C6173680F
:103BA000222073746172743D2230783130303030AD
:103BB00022206C656E6774683D2230783730303073
:103BC00030223E203C70726F7065727479206E6195
:103BD0006D653D22626C6F636B73697A65223E305E
:103BE00078383030303C2F70726F70657274793E67
:103BF0003C2F6D656D6F72793E3C6D656D6F7279AE
:103C000020747970653D2272616D22207374617237
:103C1000743D223078313030303030303022206CFA
:103C2000656E6774683D22307838303030223E202F
:103C30003C2F6D656D6F72793E3C6D656D6F72796D
:103C400020747970653D22726F6D222073746172E9
:103C5000743D223078314646463030303022206C78
:103C6000656E6774683D22307832303030223E20F5
:103C70003C2F6D656D6F72793E3C6D656D6F72792D
:103C800020747970653D2272616D222073746172B7
:103C9000743D223078323030374330303022206C5F
:103CA000656E6774683D22307838303030223E20AF
:103CB0003C2F6D656D6F72793E3C6D656D6F7279ED
:103CC00020747970653D2272616D22207374617277
:103CD000743D223078323030394330303022206C1D
:103CE000656E6774683D22307834303030223E2073
:103CF0003C2F6D656D6F72793E3C6D656D6F7279AD
:103D000020747970653D2272616D22207374617236
:103D1000743D223078323230303030303022206CF6
:103D2000656E6774683D2230783230303030303024
:103D3000223E203C2F6D656D6F72793E3C6D656D46
:103D40006F727920747970653D2272616D222073E3
:103D5000746172743D22307834303030303030301D
:103D600022206C656E6774683D22307831343030C3
:103D700030223E203C2F6D656D6F72793E3C6D6543
:103D80006D6F727920747970653D2272616D2220A9
:103D900073746172743D2230783430303138303091
:103DA0003022206C656E6774683D22307833343081
:103DB0003030223E203C2F6D656D6F72793E3C6D38
:103DC000656D6F727920747970653D2272616D2224
:103DD0002073746172743D22307834303035433052
:103DE000303022206C656E6774683D223078343044
:103DF0003030223E203C2F6D656D6F72793E3C6DF8
:103E0000656D6F727920747970653D2272616D22E3
:103E10002073746172743D22307834303038383019
:103E2000303022206C656E6774683D2230783143F3
:103E3000303030223E203C2F6D656D6F72793E3CF4
:103E40006D656D6F727920747970653D2272616D58
:103E5000222073746172743D2230783430304138DE
:103E600030303022206C656E6774683D22307834C3
:103E7000303030223E203C2F6D656D6F72793E3CB4
:103E80006D656D6F727920747970653D2272616D18
:103E9000222073746172743D2230783430304230A5
:103EA00030303022206C656E6774683D2230783483
:103EB000303030223E203C2F6D656D6F72793E3C74
:103EC0006D656D6F727920747970653D2272616DD8
:103ED000222073746172743D22307834303042385D
:103EE00030303022206C656E6774683D223078383F
:103EF000303030223E203C2F6D656D6F72793E3C34
:103F00006D656D6F727920747970653D2272616D97
:103F1000222073746172743D22307834303046430D
:103F200030303022206C656E6774683D2230783402
:103F3000303030223E203C2F6D656D6F72793E3CF3
:103F40006D656D6F727920747970653D2272616D57
:103F5000222073746172743D2230783432303030F4
:103F600030303022206C656E6774683D22307832C4
:103F7000303030303030223E203C2F6D656D6F7216
:103F8000793E3C6D656D6F727920747970653D2264
:103F900072616D222073746172743D223078353005
:103FA00030303030303022206C656E6774683D22CE
:103FB000307838303030223E203C2F6D656D6F7286
:103FC000793E3C6D656D6F727920747970653D2224
:103FD00072616D222073746172743D2230783530C5
:103FE00030304330303022206C656E6774683D227B
:103FF000307834303030223E203C2F6D656D6F724A
:10400000793E3C6D656D6F727920747970653D22E3
:1040100072616D222073746172743D223078453074
:1040200030303030303022206C656E6774683D224D
:104030003078313030303030223E203C2F6D656D8D
:104040006F72793E3C2F6D656D6F72792D6D617069
:104050003E00313031303030303030303030303080
:10406000303030303030303030324637463030301B
:1040700030300000000030313233343536373839D3
:1040800061626364656645303100453035004F4BF1
:104090000046636C6F73652C0046737461742C006A
:1040A0002C43004672656E616D652C00467772691F
:1040B00074652C00466F70656E2C004666737461E3
:1040C000742C0046726561642C00466C7365656BE8
:1040D0002C0046756E6C696E6B2C00453033007297
:1040E000656164005866657200537570706F727414
:1040F0006564007461726765742E786D6C0074611C
:10410000726765742E786D6C0071586665723A6DD1
:10411000656D6F72792D6D61703A726561642B3BCC
:1041200071586665723A66656174757265733A7244
:104130006561642B3B5061636B657453697A653DBF
:10414000006665617475726573006D656D6F727977
:0C4150002D6D6170003078000000000050
:10415C00A8C10F4000C0024000C0024000C0004097
:10416C0008000000C000000030000000C00000008B
:10417C0055555555A8C10F4000C0024004C002401F
:10418C00000001401000000000030000000000C00F
:10419C000300000055555555ACC10F4000C00240FE
:1041AC0000C0024000800940000000010000030034
:1041BC00000030000000C00055555555ACC10F40F3
:1041CC0000C0024000C0024000C0094000000002D4
:1041DC0000000C00030000000C000000AAAAAAAA10
:0C41EC0000D8B805F1000000CD00000074
:0400000300002CFDD0
:00000001FF
