:1000000000800010E92D00001D2E0000331C0000B0
:10001000371C00003B1C00003F1C000000000000DB
:1000200000000000000000000000000005030000C8
:10003000431C0000000000002B2E00002D2E0000AD
:10004000312E0000332E0000352E0000372E000028
:10005000392E0000471C00004B1C00004F1C000004
:10006000531C0000432E0000452E0000472E0000C8
:10007000492E00004B2E00004D2E00004F2E000098
:10008000512E0000532E0000552E0000572E000068
:10009000592E00005B2E00005D2E00005F2E000038
:1000A000612E0000632E0000652E0000672E000008
:1000B000692E00006B2E00006D2E00006F2E0000D8
:1000C000712E0000732E0000752E000010B5054C37
:1000D000237833B9044810B10448AFF300800121FC
:1000E000217010BDD800001000000000D8420000B0
:1000F00008B5064B1BB106480649AFF30080064819
:10010000016811B1054A02B1904708BD0000000026
:10011000D8420000DC000010D400001000000000F5
:100120004EF69053CEF200031B6803F47F434FEA70
:1001300013231846704700BF08B5FFF7F1FF0346C9
:1001400003F1FF33184608BD00B583B00190FFF7F7
:10015000E7FF0246019B9A4294BF00230123DBB2D2
:10016000184603B000BD00BF08B5FFF7D9FF03462E
:10017000002B14BF00230123DBB2184608BD00BFCB
:1001800008B5FFF7F1FF0346002B0CBF0023012346
:10019000DBB2002B10D14EF69053CEF200034EF698
:1001A0009052CEF20002526822F001025A60BFF370
:1001B0004F8FBFF36F8F00E000BF08BD08B5FFF79A
:1001C000D3FF0346002B0CBF00230123DBB2002B1F
:1001D00010D14EF69053CEF200034EF69052CEF26E
:1001E0000002526842F003025A60BFF34F8FBFF320
:1001F0006F8F00E000BF08BD00B583B0019001988B
:10020000FFF7A2FF0346002B14BF00230123DBB23C
:10021000002B02D04FF0000307E04EF69053CEF2D1
:100220000003019A9A604FF00103184603B000BD25
:1002300000B583B00190FFF797FF0346002B0CBF7A
:1002400000230123DBB2002B08D14EF69053CEF2EF
:100250000003019A4FEA4212DA6000E000BF03B0E7
:1002600000BD00BF00B583B00190FFF77DFF0346DE
:10027000002B0CBF00230123DBB2002B06D14EF66E
:100280009053CEF20003019A1A6100E000BF03B060
:1002900000BD00BF704700BF704700BF4FF46D4303
:1002A000CEF200034FF46D42CEF20002526942F0EA
:1002B00008025A61704700BF08B5FFF73DFF0346CB
:1002C0001846FFF799FF4FF00000FFF7B1FF4FF01E
:1002D0003F00C0F20010FFF7C5FF08BD08B5FFF7EB
:1002E0004FFFFFF7E9FFFFF769FF08BD08B5FFF70C
:1002F000D5FFFFF7F3FFFFF7CDFFFFF7CDFF00BE00
:10030000FDE700BF704700BF00B583B040F2544224
:10031000C1F2000240F2D803C1F20003D31A0193E4
:10032000019B40F2D800C1F200004FF000011A46D4
:1003300003F0B9F843F25050C0F2000000F00EF89C
:10034000AFF3008003F080F8FFF7D0FF0090009833
:1003500002F018FD4FF0FF331846704770B50021CA
:100360009EB024220E4C06460E4803F09CF8002551
:1003700001A8256000F0F2F901A83146256000F0DF
:10038000F7F9236813B901A801F01CFA206820B915
:1003900004494A6942F003034B611EB070BD00BFBF
:1003A0004C010010F400001010B500F067FC04468A
:1003B00000F068FC024603482146BDE8104001F009
:1003C000A5BC00BFFC00001010B50446FFF7ECFF11
:1003D00002482146BDE8104001F04ABDFC00001073
:1003E000024B586900F00400704700BFF400001091
:1003F00008B5054B586910F0020004D001F016F85A
:10040000003018BF012008BDF4000010044B5A69E9
:1004100010B142F0040001E022F00400586170477E
:10042000F4000010034BD869011F4A4252EB01004F
:10043000704700BFF400001010B5064C00F06EFDD0
:10044000A06900F01BFDA36913B1E26902480260D4
:1004500010BD00BFF400001050040010024B58699A
:1004600000F00200704700BFF4000010014B83F859
:1004700020007047F4000010014B93F820007047F3
:10048000F4000010014B9861D9617047F40000102E
:10049000014B9869704700BFF40000100048704796
:1004A000FC00001008B5FFF77FFF014808BD00BF42
:1004B000FC00001008B50A4801F050FC28B1FFF715
:1004C00073FF0748074901F0D3FC054801F026FCFB
:1004D000054800F10801BDE8084000F0F9B800BF88
:1004E000FC00001064350000F400001010B5FFF7A8
:1004F0005BFF124800F1080100F094F8104801F089
:1005000047FC00230F4A02EBC3010C79844206D159
:1005100052F8330080478207044607D508E00133CC
:100520000C2BEFD10848FFF74FFF0024FFF7C2FF65
:1005300004F00104002CDAD010BD00BFF40000105C
:10054000FC00001068350000DA35000070B5FFF7D8
:100550004FFF054600F08AFB064600F04BFF30B126
:1005600000F024FF18B9BDE8704000F04FBFAFF3B2
:100570000080FFF73DFF60B100F066FF0028FBD16F
:1005800000F01EFF2B2804D001F0CEF800F06AFF27
:10059000F2E700F0E7FD00F077FB134C052884F844
:1005A00020000FD101F05CF960B101F063F948B1AE
:1005B00046B900F0E3FBAFF30080616921F002036C
:1005C000636170BD1DB900F093FB02F069F9FFF79C
:1005D0008DFF00F0D3FBAFF30080034B5A6922F08C
:1005E0000200586170BD00BFF4000010A0F161036B
:1005F000052B01D857387047A0F14101052901D8D2
:10060000373870473038C2B2092A07D9044803681E
:10061000022BB8BF022303604FF0FF30704700BFCA
:100620004C01001038B5082204460D46002102F0A6
:100630003AFF25602579242D04D000F0C1FEC5B213
:100640002571F8E7206801F066FB0023637100F074
:10065000B7FEC5B22571206801F063FB58B1242DA7
:10066000E8D0232D09D062792068A9186171294644
:1006700001F07CFBEBE7232DDCD100F0A1FEC0B242
:100680002071FFF7B3FF054600F09AFEC0B220715B
:10069000FFF7ACFFEDB240EA0510A07100F086FE56
:1006A0000028C7D1A27961798A4201D02D2000E0CB
:1006B0002B2000F091FEA07963799842BAD120688E
:1006C00001F02CFB2068BDE8384001F024BB00009D
:1006D00070B5082204460D46002102F0E4FE2560B4
:1006E000206801F018FB00236371242000F074FEE1
:1006F000206801F016FB48B1206801F049FB05466F
:1007000000F06AFE6379EE186671F1E7232000F0CD
:1007100063FE66790A4D3009285C06F00F0600F08A
:100720005BFEA85D00F058FE00F04AFEC1B203294E
:100730002071F9D0CAB22B2A01D0242AD0D170BDA1
:10074000C835000010B500212822044602F0ABFE97
:100750000023E36284F8303010BD000010B5044679
:10076000FFF7F0FF014BA36210BD00BFD8350000BA
:100770002B4B70B5002204460D461A60FFF7E2FFCE
:1007800004F1300329461A4605F14006084611F8DF
:10079000015B25B1B14202F8015B0846F6D10021A8
:1007A000117000781E4A20B111680129B8BF0121DB
:1007B00011601068002832D11A78002A2FD01A460A
:1007C00013F8015B2DB9164B00201860117849B958
:1007D00012E0A16A481E10F8011F0029F3D08D42D3
:1007E000F9D1ECE7E06A092802D90120186003E09A
:1007F000411C44F82020E1621B6883B9134612F8BB
:10080000015B002DD8D0A16A481E10F8011F0029F5
:10081000F4D08D42F9D1002103F8011BCCE770BD63
:100820004C0100102DE9F041C76A064688460024B5
:10083000BC4208D056F824504146284602F03BFE00
:1008400010B10134F4E700252846BDE8F0812DE918
:10085000F041C76A064688460025BD4209D056F8D1
:1008600025404146204602F050FE844202D0013528
:10087000F3E700242046BDE8F0810000124BF0B5FC
:100880001F6806463F0F002303F1606000F581708A
:100890000001BB4213D085680C4C2C40944210D10F
:1008A0000468B4420DD1D0F804C00D460024012DD7
:1008B00002D96D080134FAE7A44502D1F0BD002049
:1008C000F0BD0133E0E700BF001000E0AFFD0F0016
:1008D000044B1968C1F3031001F4E04240EA12200E
:1008E000704700BF002000E0054B1A68C2F30721E3
:1008F000884202D29860012070470020704700BFF4
:1009000090ED00E070B51E4DAC6A14F0FF0635D0D6
:100910001C4802F004F81C4802F001F8304602F0CE
:1009200025F8220605D5194801F0F9FF686B02F099
:100930001DF8A30602D5164801F0F1FFE00607D521
:10094000144801F0ECFF144BD3F8080202F00EF843
:10095000210707D5114801F0E2FF0F48D0F808023F
:1009600002F004F8A20702D50D4801F0D8FFE30712
:1009700004D50C48BDE8704001F0D1BF70BD00BF88
:1009800000ED00E0BB380000CA380000DF3800008E
:10099000F43800000E390000500100102B3900001F
:1009A0004A3900005B39000070B5214DAC6A240A59
:1009B00014F0FF063AD01F4801F0B1FF1E4801F0C5
:1009C000AEFF304601F0D2FF230605D51B4801F0EB
:1009D000A6FFA86B01F0CAFFA00602D5184801F0D7
:1009E0009EFFE10607D5174801F099FF164BD3F893
:1009F000080201F0BBFF220707D5144801F08FFF62
:100A00001148D0F8080201F0B1FF630702D5104881
:100A100001F085FFA00702D50E4801F080FFE10735
:100A200004D50D48BDE8704001F079BF70BD00BF2E
:100A300000ED00E072390000CA380000DF38000025
:100A4000F43800000E390000500100102B3900006E
:100A5000813900009C390000B5390000174B10B5F2
:100A60009C6A240C28D0164801F059FF154801F063
:100A700056FF204601F07AFFA10502D5124801F089
:100A80004EFFE20502D5114801F049FF230702D5C8
:100A90000F4801F044FF600702D50E4801F03FFF08
:100AA000A10702D50C4801F03AFFE20704D50B4834
:100AB000BDE8104001F033BF10BD00BF00ED00E005
:100AC000CF390000CA380000E0390000F4390000D6
:100AD0000A3A0000223A0000463A0000593A000063
:100AE0000C4B034013B14FF0FF30704720F06042D1
:100AF00022F0030343F0010239B910F0020F0CBFDA
:100B00004FF080404FF0004001E04FF04040104374
:100B1000704700BF010000E038B5FFF7E1FF044671
:100B2000FFF7D6FE084A00238342114609D052F847
:100B3000045B25F0005525F00205AC4202D00133DC
:100B4000F2E70021084638BD082000E0044B186891
:100B5000C0F30721D1F1010038BF0020704700BF6A
:100B600090ED00E073B5044602AD45F8042D01F0A8
:100B700023F920463A2101F0F9F8013D0DF107066D
:100B800015F8011F204601F017F9B542F8D12046AB
:100B90003B2101F0EBF87CBD064B0749DA6822F4F3
:100BA0008020D860D1F8003223F00402C1F800227E
:100BB000704700BFF0ED00E05001001010B50021BB
:100BC0004FF43E72234802F06EFC234B2349DA684F
:100BD00042F08070D8600C680023200F03F160623F
:100BE00002F581710C0183420AD00021216061600D
:100BF000A268013322F4D77121F00102A260EDE76F
:100C0000FFF766FE164A1368C3F30321401815491F
:100C10000023834204D0002441F8044B0133F8E759
:100C2000106840F0030414600F4C0822E27784F847
:100C3000222084F82320FFF7AFFF074B0022D9685A
:100C400021F40030D86084F82020D96841F4803045
:100C5000D86010BD50010010F0ED00E0001000E081
:100C6000002000E0082000E000ED00E0024BD3F897
:100C7000000200F004007047500100100048704767
:100C8000BC0300108920704710B500F029FFC0B2E6
:100C9000811E162924D8DFE801F00C25250E10232B
:100CA000232323231223232323232323230C0C0C6A
:100CB0000C00022010BD0A2010BD042010BD0A4BFC
:100CC000186B0023094ADC0052F83310014204D0AB
:100CD000054812190163107910BD0133042BF1D1BD
:100CE000112010BD0B2010BD00ED00E0BC3A00004B
:100CF00010B500F0F5FEC0B2C11E03292FD8DFE801
:100D000001F002212427164B1648DC6A01F007FE89
:100D1000154801F004FE204601F028FE002C02DAFE
:100D2000124801F0FCFDA30702D5114801F0F7FDC0
:100D300060000FD50F4801F0F2FDFFF7E3FDFFF76C
:100D400033FE05E0FFF7DEFD04E0FFF72DFE01E0D6
:100D5000FFF784FE0848BDE8104001F0E0BD10BD7B
:100D600000ED00E0743A0000CA380000843A000048
:100D7000953A0000AC3A0000B83A000038B5FFF7E9
:100D8000E5FE244C38B9636823F00100606000F090
:100D9000B0FE00F0B1FE21681F4CC1F30722501EC7
:100DA000FFF7A2FDD4F85C52FFF7D0FE10B9194B43
:100DB0006D01DD60D4F86042FFF7C8FE08B9154840
:100DC0000461154CD4F85802FFF78EFDD4F8544254
:100DD000FFF7BCFE28B90F494C6000F08AFE00F016
:100DE0008BFE0D4B1A4611680C48043381420C49A6
:100DF00002D18B421A46F5D3074B8A1AD3F8680200
:100E000008498242C8BFC3F86822CA6822F4003386
:100E1000CB6038BD90ED00E050010010EFBEADDEBC
:100E200050030010F0ED00E0014BD3F8480270478A
:100E300050010010014BC3F84802704750010010E8
:100E4000044BD3F84802D3F85012401A18BF0120BF
:100E5000704700BF50010010074A30B5D2F8181291
:100E6000D2F81052D2F81442D2F80C22846080E8F2
:100E70002400C16030BD00BF50010010014BC3F819
:100E80000C0270475001001008B500F032FE064B0E
:100E9000D3F80002D3F8002200F0020022F0020191
:100EA000C3F8001208BD00BF5001001010B500F0DB
:100EB00063FA0446FFF7E8FF30B1044B00241A68D8
:100EC0000A2AB8BF0A221A60204610BD4C01001041
:100ED000024BD3F84802FFF7E9BF00BF50010010F2
:100EE00038B50D4D00242C60FFF7F2FF2B6813B1CD
:100EF0002C60204638BD4BF6AB61884208D0543197
:100F0000884207D0B0F53E4F0CBF0320002038BD0B
:100F1000012038BD022038BD4C01001038B50F4CFF
:100F200000252560FFF7D4FF23680BB1256038BD8D
:100F300000F47840B0F5684F094905D0B0F5704F1E
:100F400002D0B0F5784F03D1D1F84802031D02E07A
:100F5000D1F84822931CC1F8483238BD4C0100102A
:100F60005001001038B50D4C05460C21D4F83C2238
:100F7000FFF7F8FD28460D21D4F84022FFF7F2FDD7
:100F800028460E21D4F84422FFF7ECFDD4F848227D
:100F900028460F21BDE83840FFF7E4BD500100109E
:100FA00070B5064C064604F1440514F8011F30469E
:100FB00000F002FFAC42F8D170BD00BF5B0300102F
:100FC00070B5064C064604F14405304600F010FFAB
:100FD00004F8010FAC42F8D170BD00BF5B030010F4
:100FE000194B70B50024022905461C6008D001D3B6
:100FF000042904D904221A604FF0FF3400E00124D0
:101000001868F8B928462146FFF786FD0646C8B994
:10101000FFF75EFC0D4A3346834216460CD052F869
:10102000041BC90701D50133F6E72EB12846214636
:10103000FFF756FD306070BD03480268082AB8BF4C
:101040000822026070BD00BF4C010010082000E0C3
:10105000F8B5324C00232360FFF73AFF256825B925
:1010600000F47F40B0F55F4F2DD02D4CD4F80052E6
:1010700045F00406294DC4F8006200262E60FFF7F3
:1010800027FF2968074629B9D4F84832981CFFF78A
:101090000DFF00E030462A681AB1204900200860A0
:1010A00023E027F00F07BFB24FF280318F421CD1EF
:1010B00048F61103984202D05A1C904215D10820DC
:1010C00000F011FD24E017498A680221D36A23F059
:1010D0000100FFF785FF2068114990B9D1F800227F
:1010E00042F01003C1F80032F8BD00F0FFFC0C4BD9
:1010F000D3F80022C3F8640242F00800C3F80002EB
:10110000DDE7D1F80002256040F00402C1F80022BA
:101110000549CB6843F48022CA60F8BD4C01001039
:101120005001001000ED00E0F0ED00E00C4B00225B
:10113000022910B51A6003D004D3042902D806E0AE
:10114000114605E0042119604FF0FF3100E0012154
:101150001C681CB9FFF7E0FC00B1046010BD00BFC3
:101160004C01001010B5424CD4F80032D4F84812AB
:1011700023F00200C4F80002C4F85012FFF7E6FCA6
:101180003C4B08B95A6801E04FF0FF32C4F85422D2
:101190009868C4F858021C68C4F30721481EFFF77A
:1011A000A3FBFFF7D3FC18B9324BDA68500900E013
:1011B00000202F4CC4F85C02FFF7C8FC10B92D4981
:1011C0000B6900E00023C4F86032FFF7BFFC294C34
:1011D00038B9626822F00100606000F08AFC00F01B
:1011E0008BFC2168C1F30723581EFFF77DFBFFF737
:1011F000ADFC08B91F4CE060FFF7A8FC10B91E4A0F
:101200001C480261FFF7A2FC40B91A494B6843F041
:1012100003044C6000F06DFC00F06EFC144CD4F83C
:10122000002213070CD5D4F8000220F00801D4F8EE
:101230006402C4F8001200F056FC0023C4F86432C3
:10124000D4F800220A49D0060DD5D1F8000220F0CA
:101250001003C1F8003209498A680221D06A20F0DF
:101260000100FFF763FFBDE81040FFF795BC00BF2A
:101270005001001090ED00E03F00000100ED00E0A3
:10128000022A98BF1F4B70B594BF9D5C00254B1E72
:101290000B4206460C4606D148423040864202D1F7
:1012A000691F022905D9184B19680429B8BF042100
:1012B00026E0304621462A46FFF7E0FA08BB134AEB
:1012C0001368190F00F1606202F581731B018842F7
:1012D00011D09A6812F00F0201D00130F2E7012C10
:1012E00002D964080132FAE75A605868904202D184
:1012F0001E609D6070BD044B19680829B8BF0821A5
:10130000196070BDB83800004C010010001000E0FA
:10131000022A98BF114B10B594BF9A5C00224C1E54
:101320000C4006D14B420340984202D1531F022B7E
:1013300006D90B480268042AB8BF0422026010BD17
:10134000FFF79CFA40B104604460816821F4D773D0
:1013500023F00102826010BD10BD00BFB83800004C
:101360004C01001040F2B92070470000004870475F
:10137000DB35000000687047008880B27047007855
:10138000704701607047018070470170704700002E
:10139000034B04481A68111A03488B1058437047CE
:1013A00048040010EC3A0000398EE338034B18680B
:1013B000C1680A7D02F00100704700BF48040010B8
:1013C00008B5FFF7F3FF0028FBD0024B1868C1688F
:1013D000087808BD48040010054B1968CB681A7DD1
:1013E00002F02001CAB2002AF9D0C0B218707047CA
:1013F0004804001010B500F073FB0446FFF7C8FF67
:10140000E3B21530191A4842484110BD024B186822
:10141000C1688B68704700BF48040010024B5868D1
:1014200000F00100704700BF48040010054B5868E9
:10143000820704D400F0010181F001007047002010
:10144000704700BF4804001008B5FFF7EFFF28B150
:10145000034B1868C1680A6A02F0010008BD00BFAA
:101460004804001008B5FFF7E1FF20B1024B072246
:101470001868C1680A6208BD480400102DE9F04FE1
:1014800087B0044600210C2203A802F00CF895490D
:101490002046FFF7C7F920469349FFF7C3F908B183
:1014A0000323049320469149FFF7BCF908B10120BA
:1014B000049020468E49FFF7B5F908B10221049146
:1014C00020468C49FFF7AEF908B10022049220466D
:1014D0008949FFF7A7F908B10127049720468749F2
:1014E000FFF7A0F908B10223049320468449FFF7CF
:1014F00099F908B10320049020468249FFF7A7F923
:10150000D8B10E30002310F8011BA9B17E4A002586
:10151000156010F8011C3039CEB2092E02D9092706
:101520001760294612681AB177490020086003E065
:101530000A2707FB0313E6E7059320467349FFF7E5
:1015400071F908B101220392049F24217943704864
:10155000704A039F4318136027B1516841F001039B
:101560005360BBE06C4A1C69D2F8C4502543C2F8F2
:10157000C45042585969106820EA0104146058693F
:10158000156800F0553129431160DA68102582F89A
:101590002850DC6801212172DA6803201073059A53
:1015A000002A5BD05D4C20684FEA101CBCFBF2F4B3
:1015B00002FB04F060453AD016014FEA0C2C01966C
:1015C0000D464FF0FF384FEA011E164601208842B3
:1015D00028D24FEA0619B9FBFEFA0AEB020BBCFB54
:1015E000FBF909F1800A4FEA1A294FEA091A00FBB0
:1015F0000AFB4FEA0B1BBBFBFEFBDA44DDF804B031
:10160000BCFBFAFACBEB0A0ABAF1000FB8BFCAF179
:10161000000AC24503D207460D464C46D04601306B
:10162000B618D4E701311029CDD147EA0515D8689D
:10163000EDB2017B41F08002E1B2C4F307240273F2
:101640000170047180F82850D868324C027B02F097
:101650007F010173606840F0020262605A68996914
:101660001468186A24EA01040840044314609A6864
:10167000D9691468186A24EA0104084044EA0001A0
:101680001160DA68117B107B00F07F001073DA685C
:1016900001205060DB681973FFF7E4FEFFF778FE66
:1016A000411DC8B2C2B253B2002B06DA1C4B00F087
:1016B0000F01CB180021197606E003F1604101F516
:1016C0006143002183F8001352B200F01F00012390
:1016D000510903FA00F2134840F8212007B0BDE891
:1016E000F08F00BF7C3B00008E3B0000A33B00005E
:1016F000B93B0000CF3B0000DA3B0000E53B0000B7
:10170000F03B0000DC3A00004C010010FB3B000005
:10171000EC3A00004804001000C00F40C800001060
:10172000FCEC00E000E100E038B5134B1C685D689C
:10173000DA6822F07F4040B100221A60D96821F0B7
:101740007F4058609A6005221A60FFF72FFE0A4B0F
:1017500030B9D96821F07F4010B11A68D103F4D5AF
:1017600025F07F455D601C60FFF720FE10B1FFF79C
:1017700027FEDAE738BD00BF10E000E038B50C4CBA
:10178000002323600546FFF719FA236873B903F1B4
:1017900060420133082102F56140232B80F80013D9
:1017A000F5D12846BDE83840FFF768BE38BD00BF18
:1017B0004C01001040F2C6507047000000487047CE
:1017C0000A3C00001F4A002370B542F8043B1E4B40
:1017D000064603F1200518685968144603C4083307
:1017E000AB422246F7D11868184920600B68184CA4
:1017F0000025D80725601BD5164800F04FFA00F0E9
:1018000041FA256041F289300138104A02D011684E
:10181000C907F9D413680E4813F0010F01D005224F
:101820000260016821B9074B186840F001021A6094
:1018300007490B6823B93046BDE87040FFF79EBFEB
:1018400070BD00BF18010010D1410000F0ED00E0B4
:101850004C0100101C010010004870471C010010D2
:1018600008B5FFF73DFB0138C0B201288CBF00204E
:10187000012008BD1FB5FFF733FB04466846FFF79C
:10188000EBFA012C03D1684600F094F806E0022C34
:1018900003D1684600F004F800E0002004B010BD59
:1018A00010B58CB00446FFF7BFFA334B40F001008F
:1018B000984209D120686368A168029002A8039346
:1018C000049100F03DFD55E02C49884209D1236880
:1018D0006168A26802A802930391049200F054FD8B
:1018E00048E0274A90420CD12068089001F0EEFDB4
:1018F0000990A06862680B9008A80A9200F0F2FCB8
:1019000038E0204B984208D12068009001F0DEFDBD
:101910000190684600F0B2FD2CE01B49884209D1D5
:1019200020686368A168059005A80693079100F0F8
:1019300063FD1FE0154A904203D1206800F048FD86
:1019400018E0134B984204D194E8030000F078FDAE
:1019500010E01049884204D194E8030000F0ACFD87
:1019600008E00D4A904204D194E8030000F0CCFD59
:1019700000E000200CB010BDB11C0000B51C000040
:10198000B91C0000C11C0000C91C0000CD1C0000D7
:10199000D11C0000C51C0000BD1C000010B5044691
:1019A000FEF776FD031EA8BFC3EB0400BDE81040A0
:1019B000FFF764BA30B5036899B0092B00F0848052
:1019C0000FD8022B51D003D8012B40F084802CE09B
:1019D000052B50D0062B7ED14568284600F0D4FC5C
:1019E0004DE00C2B51D00CD80A2B74D14368002049
:1019F0001A685968039001A80192029100F0FCFC5A
:101A000037E00E2B5CD040F20114A34263D145684D
:101A10006C682D68FFF720FF242C34BF2246242257
:101A20000146284601F036FD4EE0406802684168F4
:101A300004924A0705D411F0080405D04FF402744B
:101A400003E04FF4C06400E0234611F0020F806809
:101A500018BF022343EA04024FF4DB71059004A887
:101A60000692079100F03EFC03E04468206800F015
:101A7000AFFC044630E04568284600F061FC0446AF
:101A800050B3A868FFF78AFF26E0436808A91868E2
:101A900000F0D6FC0446F8B1FEF7FAFCE0B99DF878
:101AA00041109DF84220080440EA02239DF843209B
:101AB0009DF84010134343EA0160FFF7DFF90BE0A4
:101AC000406800F0DBFCD4E7FFF728FA0020FFF7BE
:101AD000D5F9012400E00024204619B030BD0000F3
:101AE000EFF30580704780F311887047EFF31180A2
:101AF0007047BFF34F8F7047BFF36F8F70475648E3
:101B000000F003B8554800F000B81EF0040F0CBFF9
:101B1000EFF30881EFF30981514A1160874651487C
:101B2000514A0068104200F00380504900F000B8AC
:101B30004F48026812F0010F1EBF42F0020202601D
:101B400000F056B842F0010202604020DFF820C1E8
:101B5000484A13466CE902230138FBD1EFF30882AF
:101B600045480260424880F3088844482DE9005007
:101B7000B1E80C50A0E80C50A0E8F00F3CC940F8C8
:101B8000082B38C015F4007F18BF043140F8101C32
:101B9000FEF7DCFC3A4850F80C1C026822F4007294
:101BA00041F8042D30E90C0021E90C0050F808CD73
:101BB00041F804CD30E9F00F30E90C5021E90C5028
:101BC000BDE800502C48026882F308881EF0040F1C
:101BD0000CBF81F3088881F309882548016821F04A
:101BE00001010160BFF34F8FBFF36F8F00F01BB88F
:101BF0001C48006810F4806F40F0158088690288E6
:101C000002F47842B2F5684F08D0B2F5704F05D0B3
:101C1000B2F5784F02D000F1020001E000F10400BB
:101C2000886100F000B80F480168016041684160B8
:101C30007047FFF767BFFFF765BFFFF763BFFFF7A9
:101C40005EBFFFF75CBFFFF75ABFFFF758BFFFF754
:101C500056BFFFF754BF0000311B00001F1B0000E0
:101C60005803001028ED00E0181800009838000014
:101C700050030010EFBEADDE540300105C030010F3
:101C80009C03001082B001A940F20510ABBE0028F1
:101C90000CBF01984FF0FF3002B0704782B0009047
:101CA00021200190694640F20110ABBE02B070479E
:101CB000FFBE7047FFBE7047FFBE7047FFBE704754
:101CC000FFBE7047FFBE7047FFBE7047FFBE704744
:101CD000FFBE7047A0F16103052B01D8573870474C
:101CE000A0F14101052901D8373870473038C2B218
:101CF000092A07D904480368022BB8BF02230360EE
:101D00004FF0FF30704700BF4C0100108A1801608F
:101D100042608160704703688360704783684360F6
:101D2000704783684068834294BFC3EB0000002083
:101D30007047000038B50D460446FFF7F2FFA84291
:101D400008D2054963680A68581C012AB8BF0122F5
:101D5000A0600A6038BD00BF4C0100108268406876
:101D6000824294BF002001207047000070B5074DEB
:101D700000230E46012104462B60FFF7DBFF286895
:101D800018B9A16801F8016BA16070BD4C01001089
:101D900070B5084E0024012105463460FFF7CAFFE4
:101DA000336823B9A96811F8010BA96070BD2046FA
:101DB00070BD00BF4C01001070B50B4E00230D46E6
:101DC000022104463360FFF7B5FF306850B9074A77
:101DD000290905F00F05A368505C525D18705A7010
:101DE0000233A36070BD00BF4C010010F54100003C
:101DF00070B5114E0023022104463360FFF79AFFAD
:101E0000306808B1002514E0A1680878FFF762FF88
:101E100033680201D5B22BB9A0684078FFF75AFFAA
:101E20002843C5B204490A68002AEBD1A368981C6C
:101E3000A060284670BD00BF4C010010F8B50B4FE4
:101E400000230C461146054616463B60FFF772FF1D
:101E5000386848B9A619B44206D014F8012BA9680D
:101E600001F8012BA960F6E7F8BD00BF4C01001096
:101E700038B5054608460C4601F028FB21460246C7
:101E80002846BDE83840FFF7D9BF0000F8B5002567
:101E900004462E46134F002320463B60FFF778FF91
:101EA000396861B9FFF716FF3A6832B1A068236854
:101EB000984204D9411EA16001E000EB05150948D4
:101EC00002680AB90136E5E7002361680360A0688B
:101ED000884288BFA1601EB9024A032515603546B5
:101EE0002846F8BD4C0100102DE9F04180460E4611
:101EF00019B9BDE8F041FFF75FBF4FF07F43002401
:101F0000334203D101341B0A042CF9D1C4F1030478
:101F1000E500631C0DD026FA05F1074F002038605C
:101F2000C9B24046FFF748FF3A68013C083D002A25
:101F3000EFD0BDE8F08100BF4C0100100A4B70B536
:101F400000220C1E06461A601D4603DA2D2164424B
:101F5000FFF70CFF286828B930462146BDE87040DD
:101F6000FFF7C2BF70BD00BF4C01001070B50B4D34
:101F700000230E4604462B60FFF7D3FE294608B91E
:101F800001222A60086838B9A3681978B14204D1DF
:101F9000581CA060012070BD002070BD4C010010D5
:101FA000F8B5134C00252D2107462560FFF7DEFF0D
:101FB000236806461BB93846FFF768FF00E028464D
:101FC00022680B498AB936B900280FDA03230B605F
:101FD0006FF00040F8BDB0F1004F04D90320086055
:101FE0004FF00040F8BD4042F8BD0020F8BD00BFF2
:101FF0004C0100102DE9F041124E00231446054615
:1020000088463360FFF78DFEA04201D20120306088
:1020100037687FB9AE6841463046224601F05EFA25
:10202000804638B92846FFF77CFEA04205D0315DD6
:102030003A2902D00020BDE8F0813419AC600120BB
:10204000BDE8F0814C010010054B1868042803D04E
:10205000082804D1034800E00348FEF7B5B97047EB
:102060004C010010094200000542000070B5064610
:10207000FEF714FA0F4C002305462360FFF788FE95
:1020800030722068A8B92C21284600F0BFF82168DA
:1020900079B9284600F0ACF8226830604AB9284681
:1020A0002C2100F0B3F823681BB9284600F0A0F8F3
:1020B000706070BD4C01001010B5094C0246002341
:1020C00003C92360FFF724F9206818B1BDE8104068
:1020D000FFF7BABF0348BDE81040FEF775B900BF6F
:1020E0004C0100100D42000010B5094C02460023BF
:1020F00003C92360FFF7C4F8206818B1BDE8104099
:10210000FFF7A2BF0348BDE81040FEF75DB900BF6E
:102110004C0100100D4200001FB5164C002301A811
:102120002360FFF7A3FF206808B113481DE09DF866
:102130000C103139032917D8DFE801F0020D0F1117
:1021400001980299FEF74CFF226812B1FFF77CFF5D
:102150000DE00A4809E0002002E0012000E0022032
:1021600001A9FFF7C1FF02E00548FEF72DF90020A5
:1021700004B010BD4C010010054200000D420000EB
:10218000DA3500001FB5164C002301A82360FFF7C5
:102190006DFF206808B113481DE09DF80C1031391F
:1021A000032917D8DFE801F0020D0F1101980299F9
:1021B000FEF7BCFF226812B1FFF746FF0DE00A48A8
:1021C00009E0002002E0012000E0022001A9FFF761
:1021D00073FF02E00548FEF7F7F8002004B010BDD9
:1021E0004C010010054200000D420000DA350000ED
:1021F00010B5054C00232360FFF748FE2168002935
:1022000018BF002010BD00BF4C01001008B5FFF73B
:10221000ADFE28B9034B1A68042AB8BF04221A601D
:1022200008BD00BF4C01001070B50A4C00230D46DC
:1022300006462360FFF7DCFF2860206848B92C21A0
:102240003046FFF7E3FF216819B93046FFF7D0FFAA
:10225000686070BD4C01001038B5074C002305467E
:102260002360FFF7E1FF206828B928463A21BDE83E
:102270003840FFF7CBBF38BD4C01001070B5FEF7FA
:102280000DF90646FEF7DCFD18B9FEF729FE032816
:102290000DD00024084D002330462B60FFF7A8FF27
:1022A000296809B9FEF7C6FD44F0030070BDFEF7CA
:1022B00035FE0424EEE700BF4C01001008B5FEF720
:1022C00015F9FEF78DF848B1FEF7ACF808B9FEF73E
:1022D000B3F80220FEF7CAF8002008BDFEF7ACF8FC
:1022E000012008BD38B50546FEF7DCF81349044661
:1022F000FFF7BEFD20462968FFF7F6FD20462F2197
:10230000FFF734FD696820460131FFF7EDFD2046F7
:102310002C21FFF72BFD2046A968FFF7E5FD20469D
:102320002C21FFF723FD2046E968FFF7DDFDFEF7CE
:10233000C1F8BDE83840FFF7C1BF00BF334200001D
:1023400038B50546FEF7AEF80E490446FFF790FD96
:1023500020462968FFF7C8FD20462C21FFF706FD1F
:1023600020466968FFF7C0FD20462C21FFF7FEFCE0
:102370002046A968FFF7B8FDFEF79CF8BDE8384095
:10238000FFF79CBF2B42000038B50546FEF78AF8E0
:102390000E490446FFF76CFD20462968FFF7A4FDAF
:1023A00020462C21FFF7E2FC20466968FFF79CFDE0
:1023B00020462C21FFF7DAFC2046A968FFF794FDA0
:1023C000FEF778F8BDE83840FFF778BF42420000DA
:1023D00038B50446FEF766F806490546FFF748FD9E
:1023E00028462146FFF780FDFEF764F8BDE8384037
:1023F000FFF764BF1042000038B50546FEF752F8FB
:102400000E490446FFF734FD20462968FFF76CFDAE
:1024100020462C21FFF7AAFC20466968FFF78EFDB5
:1024200020462C21FFF7A2FC2046A968FFF786FD75
:10243000FEF740F8BDE83840FFF740BF49420000D2
:1024400070B50D460646FEF72DF80B490446FFF71A
:102450000FFD20463146FFF747FD20462C21FFF7B0
:1024600085FC20462946FFF73FFDFEF723F8BDE82F
:102470007040FFF723BF00BF3A42000038B5054661
:10248000FEF710F80B490446FFF7F2FC20462968D6
:10249000FFF72AFD20462F21FFF768FC69682046D8
:1024A0000131FFF721FDFEF705F8BDE83840FFF7E1
:1024B00005BF00BF5142000070B505460E46FDF74E
:1024C000F1FF10490446FFF7D3FC20462946FFF7E9
:1024D0000BFD2F212046FFF749FC284600F0F6FFB0
:1024E000411C2046FFF700FD20462C21FFF73EFC53
:1024F00020463146FFF7F8FCFDF7DCFFBDE87040F1
:10250000FFF7DCBE1842000070B50D460646FDF729
:10251000C9FF16490446FFF7ABFC20463146FFF7DA
:10252000E3FC2F212046FFF721FC304600F0CEFFD0
:10253000411C2046FFF7D8FC20462C21FFF716FC53
:1025400020462946FFF7D0FC2F212046FFF70EFC3E
:10255000284600F0BBFF411C2046FFF7C5FCFDF7F5
:10256000A9FFBDE87040FFF7A9BE00BF22420000EE
:1025700070B5FDF793FF0446FFF712FD2C210646C8
:102580002046FFF7F3FC50B12046FFF709FD09494B
:10259000054602222046FFF72DFD044601E00446D1
:1025A000054630462946FDF76DFF2046FDF72EFF14
:1025B000032070BD1F42000037B5FDF76FFF0B4CC5
:1025C0000023694605462360FFF72EFE206818B1F8
:1025D0000748FDF7F9FE06E0FDF7E6FE9DE8060078
:1025E000284600F048FA00203EBD00BF4C01001014
:1025F0000542000037B5FDF751FF0C4C002369463A
:1026000005462360FFF728FE206808B1084808E067
:1026100028469DE8060000F05BFA08B1054800E096
:102620000548FDF7D1FE00203EBD00BF4C01001063
:10263000054200000D4200005A42000037B5FDF788
:102640002DFF124D0023694604462B60FFF7ECFD79
:10265000286818B920463A21FFF7D8FD296809B142
:102660000B480EE020469DE8060000F059FA08B13C
:10267000084806E02046FFF771FB08B1064800E075
:102680000648FDF7A1FE00203EBD00BF4C01001032
:10269000054200000D420000643500005A4200006F
:1026A0002DE9F8430446FDF7F9FE251D95E8A00144
:1026B000AF42064603D2ED1B4FF06D0903E0002543
:1026C000A8464FF06C09FDF76FFE3046FFF729FB77
:1026D000404538BF8046A84588BF4FF06C0930465A
:1026E000494688BFA846FFF741FB21683046C91913
:1026F0004246BDE8F843FFF7A1BB0000F7B504462A
:102700000E4608461022002100F0CDFE20463A2158
:10271000FFF72CFC30B91F480268042AB8BF042216
:10272000026036E020461C490422FFF763FC0028C3
:10273000F1D020463A21FFF719FC0028EBD0154DC7
:102740000023204615490A222B60FFF753FC074659
:1027500090B120463A21FFF709FCA0B10F48306044
:102760000C480268AAB969462046FFF75DFD009B48
:102770000199B360F1600CE020463A21FFF7F6FBC7
:1027800008B13846EBE729680429B8BF042129605D
:10279000E5E7FEBD4C010010CF4200006D42000095
:1027A0007FB5FDF77BFE354909220446FFF722FC81
:1027B000064668B1FEF766FA0446FDF773FE304937
:1027C0000546FFF755FB28462146FFF78DFB51E0F4
:1027D00020462C490422FFF70DFC002847D0FDF7C6
:1027E0005DFE3A210446FFF7C1FB002833D02046A6
:1027F00025490A22FFF7FEFB0546A0B1234CFDF751
:102800004DFE69462660FFF779FF22681AB9009BE2
:102810000BB1042020602168E9B9FEF7CFFF0090DA
:10282000FEF7C8FF1EE0204619490822FFF7E2FB29
:10283000E8B1164CFDF732FE69462560FFF75EFFF2
:10284000236833B90098134900F035FE08B104201D
:102850002060216809B110480AE0FEF787FD00906A
:10286000FEF780FD01906846FFF71AFF02E00B4873
:10287000FDF7AAFD002004B070BD00BF6342000058
:10288000784200005E420000C44200004C0100108B
:10289000BB420000B042000005420000DA350000F3
:1028A00010B5FDF7FFFD54210446FFF75FFAFDF771
:1028B000E3FD01462046FFF77FFA2046FEF752FB74
:1028C000FDF7F8FD022010BD08B5FDF7EBFDFEF7A2
:1028D00067FB002008BD000010B5FDF7DFFD0446D2
:1028E000FEF76EFB2046FFF739FA08B1034800E017
:1028F0000348FDF769FD002010BD00BF64350000EE
:102900000D42000008B5FFF7B9FC430703D5BDE849
:102910000840FFF7C5BFFEF79BFB032008BD38B595
:102920000446FEF77BFD50B1FDF798FD38B1013C40
:1029300014F8010F10B1FEF74FFDF9E738BDFDF7B0
:10294000B1FD4F210546FFF711FA204600F0BEFD0C
:1029500021460246284600F08EF82846FFF7FEF989
:1029600018B9BDE83840FDF7A5BD38BD10B586B033
:102970000B220446694603A8FFF7C8F903A80849D3
:10298000FFF776FA03A82146FFF7AEFA03A8002165
:10299000FFF7ECF96846FFF7C2FF06B010BD00BFB5
:1029A000D44200002DE9F041064601EB02080C4636
:1029B000444524D0134D002330462B60FFF7E8F93F
:1029C0002F6801465FB97D2809D13046FFF7E0F94D
:1029D000296819B980F02000C1B200E03946094ADF
:1029E000136813B10020BDE8F0812046651CFEF796
:1029F000CCFCFEF749FA0028F4D12C46D8E7012098
:102A0000BDE8F0814C010010F8B507468E180C4661
:102A1000B44214D00B4D002338462B60FFF7E8F981
:102A20000146286808B10020F8BD2046651CFEF765
:102A3000ACFCFEF729FA0028F5D12C46E8E7012086
:102A4000F8BD00BF4C010010F8B505468C180846CB
:102A5000A0420CD0461CFEF792FC0746FEF714FA83
:102A600038B928463946FFF7A7F93046F0E7012084
:102A7000F8BD0020F8BD022A73B50546144602D001
:102A8000042A22D10EE011F001061ED10846FEF7FD
:102A900073FCADF80200FEF7F7F9A0B928460DF176
:102AA00002010BE011F003060FD10846FEF762FCAD
:102AB0000190FEF7E9F930B9284601A92246FFF74F
:102AC000C3FF012003E0304601E0FFF7BDFF7CBDFE
:102AD000022A13B50C4602D0042A1ED10CE0CB0703
:102AE0001BD40DF10201FFF78FFFC0B12046BDF8E6
:102AF0000210FEF748FC09E08B070ED101A9FFF791
:102B000083FF60B120460199FEF73BFCFEF7BCF95C
:102B1000D0F1010038BF002001E0FFF775FF1CBDB8
:102B2000022A13B50C4602D0042A1ED10CE0CB07B2
:102B30001BD40DF10201FFF735FFC0B12046BDF8EF
:102B40000210FEF720FC09E08B070ED101A9FFF768
:102B500029FF60B120460199FEF713FCFEF794F9B6
:102B6000D0F1010038BF002001E0FFF71BFF1CBDC2
:102B700086B0034600918DF807304FF46D43CEF2D6
:102B800000039B6805934FF46D43CEF200039B68EE
:102B9000002B22D1059B03934FF0805305934FF0F8
:102BA000000304930FE0049B4FEA8303059AD318B4
:102BB000049A4FEA820203998A1812681A60049BE9
:102BC00003F101030493049B302BECD94FF46D43C4
:102BD000CEF200034FF080529A609DF9073003F166
:102BE00010034FEA8303059AD318009A1A6006B0BF
:102BF000704700BF4FF44043C4F20F034FF0200270
:102C0000C3F8A0214FF44043C4F20F03D3F8A0311E
:102C100003F02003002B0AD000BF4FF44043C4F25E
:102C20000F03D3F8A03103F04003002BF5D04FF48D
:102C30004043C4F20F034FF00202C3F804214FF4E3
:102C40004043C4F20F034FF00002C3F8A8214FF431
:102C50004043C4F20F034FF00002C3F8AC214FF41D
:102C60004043C4F20F034FF00102C3F80C214FF4AC
:102C70004043C4F20F034FF00B02C3F884204FF41B
:102C80004043C4F20F034FF0AA02C3F88C204FF464
:102C90004043C4F20F034FF05502C3F88C204FF4A9
:102CA0004043C4F20F034FF00102C3F880204FF4F9
:102CB0004043C4F20F034FF0AA02C3F88C204FF434
:102CC0004043C4F20F034FF05502C3F88C2000BFFD
:102CD0004FF44043C4F20F03D3F8883003F080630D
:102CE000002BF5D04FF44043C4F20F034FF0030222
:102CF000C3F880204FF44043C4F20F034FF0AA0200
:102D0000C3F88C204FF44043C4F20F034FF0550238
:102D1000C3F88C2000BF4FF44043C4F20F03D3F834
:102D2000883003F04073002BF5D04FF44043C4F2D9
:102D30000F034FF00502C3F808214FF44043C4F2DB
:102D40000F0348F2DE72C0F22842C3F8C4204FF4E9
:102D50004043C4F20F034FF00002C3F8C8214FF400
:102D60004043C4F20F034FF44042C4F20F02126812
:102D700022F4704222F03A0242F4405242F03A0207
:102D80001A60704700B583B0019000F00BF803465D
:102D9000002B01D000F01CF8019B002B01D000F0AB
:102DA00055F9FEE708B5FDF7D5FA0346184608BD04
:102DB00030B585B001900091019C009D20462946C8
:102DC000ABBE04460394039B184605B030BD00BF5C
:102DD00000B585B06B464FF018001946FFF7E8FFC5
:102DE0000346184605B000BD0749084A084B9A42F9
:102DF000BEBF51F8040B42F8040BFFF7F8BF0548BB
:102E00008047054800470000DC420000C800001071
:102E1000D4000010F52B000009030000FEE7FEE7D8
:102E2000FEE7FEE7FEE7FEE7FEE7FEE7FEE7FEE77A
:102E3000FEE7FEE7FEE7FEE7FEE7FEE7FEE7FEE76A
:102E4000FEE7FEE7FEE7FEE7FEE7FEE7FEE7FEE75A
:102E5000FEE7FEE7FEE7FEE7FEE7FEE7FEE7FEE74A
:102E6000FEE7FEE7FEE7FEE7FEE7FEE7FEE7FEE73A
:102E7000FEE7FEE7FEE700BF86B001900091019BF0
:102E8000B3F1FF3F39D0019B03F16043A3F51C234D
:102E90000593059B4FEA13130493059B03F00F035F
:102EA0004FEA430303934FF44043C4F202034FF449
:102EB0004042C4F20202049952F821104FF003007C
:102EC000039A00FA02F26FEA02021140049A43F8F0
:102ED00022104FF44043C4F202034FF44042C4F2C4
:102EE0000202049952F821100098039A00FA02F2A3
:102EF0001143049A43F8221000E000BF06B0704767
:102F000086B001900B468DF80330019BB3F1FF3F73
:102F100000F08580019B03F16043A3F51C2305931A
:102F2000059B4FEA53130493059B03F01F03039380
:102F30009DF8033003F004034FEA930302934FF428
:102F40004043C4F202034FF44042C4F20202049927
:102F500001F11A0152F821100298039A00FA02F2C4
:102F60006FEA02021140049A02F11A0243F8221099
:102F70004FF44043C4F202034FF44042C4F2020251
:102F8000049901F11A0152F821100298039A00FAEB
:102F900002F21143049A02F11A0243F82210029B32
:102FA000002B3DD1059B4FEA13130493059B03F0BF
:102FB0000F034FEA430303934FF44043C4F2020369
:102FC0004FF44042C4F20202049901F1100152F898
:102FD00021104FF00300039A00FA02F26FEA020296
:102FE0001140049A02F1100243F822104FF44043BA
:102FF000C4F202034FF44042C4F20202049901F108
:10300000100152F821109DF80300039A00FA02F211
:103010001143049A02F1100243F8221000E000BFAD
:1030200006B0704782B001900091009B002B05D044
:10303000019BDB68019A52681A6004E0019B1B69DE
:10304000019A52681A6002B0704700BF00B599B08B
:1030500012AB18464CF23201C2F209014FF00102E4
:1030600000F08AF80CAB18464CF23401C2F20901A8
:103070004FF0010200F080F806AB18464CF2350123
:10308000C2F209014FF0010200F076F86B461846D3
:103090004CF23701C2F209014FF0010200F06CF866
:1030A00012AB18464FF00101FFF7BCFF0CAB1846FE
:1030B0004FF00001FFF7B6FF06AB18464FF00001D6
:1030C000FFF7B0FF6B4618464FF00101FFF7AAFF6C
:1030D0004FF0960000F01EF812AB18464FF00001BA
:1030E000FFF7A0FF0CAB18464FF00101FFF79AFF66
:1030F00006AB18464FF00101FFF794FF6B461846E8
:103100004FF00001FFF78EFF4FF0960000F002F83D
:10311000C6E700BF00B583B00190019B4FF47A72FF
:1031200002FB03F3184600F003F803B000BD00BF34
:1031300000B585B0019000F0FFF8039000BF00F0EB
:10314000FBF80246039BD21A019B9A42F7D305B0C3
:1031500000BD00BF00B583B0019001984FF00001A1
:10316000FFF78AFE019B03F01F034FF0010202FAF2
:1031700003F3184603B000BD00B587B00390029179
:1031800013468DF80730029BB3F1FF3F37D0039B06
:10319000029A1A600298FFF7DDFF0246039B5A600D
:1031A000029B23F01F030593059B03F11802039B69
:1031B000DA60059B03F11C02039B1A61059B03F176
:1031C0001402039B5A61059A039B9A609DF807308D
:1031D0000398194600F016F89DF80730002B07D029
:1031E000012B0DD102984FF00201FFF789FE07E095
:1031F00002984FF00301FFF783FE00BF00E000BF1D
:1032000007B000BD82B001900B468DF803309DF8E9
:103210000330002B02D0012B0CD015E0019B9B68E2
:10322000019A92681168019A52686FEA02020A4094
:103230001A6009E0019B9B68019A92681168019AE3
:1032400052680A431A6000BF02B0704782B003465A
:103250008DF807304FF46143CEF200039DF907204B
:103260004FEA52129DF8071001F01F014FF00100C4
:1032700000FA01F143F8221002B0704700B583B0A4
:1032800040F24013C1F200031B68002B51D140F201
:103290004013C1F200034FF001021A604FF44043A3
:1032A000C4F20F034FF44042C4F20F02D2F8C4201C
:1032B00042F40002C3F8C4204FF48043C4F209036F
:1032C0004FF000021A6740F2C803C1F200031B6806
:1032D0004FEA930301934FF48043C4F209034FF084
:1032E00002025A60019A4DF68363C4F21B33A3FBBA
:1032F00002134FEA934300934FF48043C4F209034F
:10330000009A02F1FF32DA604FF48043C4F20903FD
:103310004FF001025A6043F2B533C0F200034FF0A0
:1033200004001946FFF724FC4FF00400FFF78EFF5E
:1033300000E000BF03B000BD08B540F24013C1F289
:1033400000031B68002B01D1FFF798FF4FF4804367
:10335000C4F209039B68184608BD00BF82B0019003
:103360004FF48043C4F20903019A9A614FF48043F9
:10337000C4F209034FF48042C4F20902526942F0D8
:1033800001025A6102B070474FF48043C4F209034E
:103390004FF48042C4F20902526922F001025A61DC
:1033A000704700BF4FF48043C4F209034FF001029D
:1033B0001A60704710B582B0FFF7F4FF00E000BF5D
:1033C00040F24813C1F200031B68002B02D1FFF743
:1033D000DBFF37E040F24813C1F200031B681C68B2
:1033E000FFF7AAFF0346E31A002B21DC40F2481343
:1033F000C1F200031B68019340F24813C1F20003BD
:103400001B689A6840F24813C1F200031A6040F248
:103410004413C1F200031B68002BD0D040F24413C8
:10342000C1F200031B68019A526810469847C6E72C
:1034300040F24813C1F200031B681B681846FFF7EF
:103440008DFF00BF02B010BD38B50E4D0E4B0024ED
:10345000E81A8510AC4205D00B4951F8242090475A
:103460000134F7E700F068F80849094A541AA51032
:103470000024AC4205D0054B53F8240080470134AA
:10348000F7E738BDCC000010CC000010CC000010D5
:10349000D000001010B50023934203D0CC5CC4547C
:1034A0000133F9E710BD82180346934202D003F8B6
:1034B000011BFAE7704710F8012B11F8013B012AB4
:1034C00028BF9A42F7D0A2EB03007047034613F8D7
:1034D000012B002AFBD1181A0138704770B592B140
:1034E0000B4605461AB928781978401A70BD10F8AD
:1034F000016B1C780131B442F5D1012AF3D0013AB5
:10350000002CEDD1EFE7104670BD30B503780BB15C
:10351000024603E0097871B1002030BD10460378FF
:103520000132002BF8D00023CC5C24B1C55CA5424D
:10353000F4D10133F8E730BDF8B500BFF8BC08BCE2
:103540009E467047F8B500BFF8BC08BC9E46704761
:103550004D52495F554152545F4D4245445F55536A
:103560004200000045303400A12800003F00000068
:103570007D2200006300000071250000460000006D
:10358000C928000067000000D9280000470000009B
:10359000B92500006D000000F52500004D00000079
:1035A000A127000071000000052900007300000041
:1035B0003D26000058000000852100007A00000030
:1035C000192100005A0000003031323334353637CB
:1035D00038396162636465662009003C3F786D6C30
:1035E0002076657273696F6E3D22312E30223F3E28
:1035F0000A3C21444F435459504520666561747517
:1036000072652053595354454D20226764622D74CE
:1036100061726765742E647464223E0A3C74617240
:103620006765743E0A3C66656174757265206E61FB
:103630006D653D226F72672E676E752E6764622E10
:1036400061726D2E6D2D70726F66696C65223E0A17
:103650003C726567206E616D653D2272302220628A
:10366000697473697A653D223332222F3E0A3C72B7
:103670006567206E616D653D22723122206269743A
:1036800073697A653D223332222F3E0A3C726567A8
:10369000206E616D653D2272322220626974736909
:1036A0007A653D223332222F3E0A3C726567206ED6
:1036B000616D653D227233222062697473697A6597
:1036C0003D223332222F3E0A3C726567206E616DC7
:1036D000653D227234222062697473697A653D22E5
:1036E0003332222F3E0A3C726567206E616D653D64
:1036F000227235222062697473697A653D22333201
:10370000222F3E0A3C726567206E616D653D227214
:1037100036222062697473697A653D223332222F22
:103720003E0A3C726567206E616D653D22723722EC
:103730002062697473697A653D223332222F3E0A12
:103740003C726567206E616D653D22723822206291
:10375000697473697A653D223332222F3E0A3C72C6
:103760006567206E616D653D227239222062697441
:1037700073697A653D223332222F3E0A3C726567B7
:10378000206E616D653D2272313022206269747352
:10379000697A653D223332222F3E0A3C72656720EA
:1037A0006E616D653D2272313122206269747369E8
:1037B0007A653D223332222F3E0A3C726567206EC5
:1037C000616D653D22723132222062697473697ABB
:1037D000653D223332222F3E0A3C726567206E61BE
:1037E0006D653D227370222062697473697A653D4C
:1037F0002233322220747970653D22646174615FE6
:10380000707472222F3E0A3C726567206E616D658E
:103810003D226C72222062697473697A653D22339D
:1038200032222F3E0A3C726567206E616D653D2233
:103830007063222062697473697A653D2233322293
:1038400020747970653D22636F64655F70747222C5
:103850002F3E0A3C726567206E616D653D2278706F
:103860007372222062697473697A653D2233322251
:10387000207265676E756D3D223235222F3E0A3CFF
:103880002F666561747572653E0A3C2F74617267BC
:1038900065743E0A00000000ADDEADDEADDEADDEDB
:1038A000ADDEADDEADDEADDEADDEADDEADDEADDEC0
:1038B000ADDEADDEADDEADDE0605070A2A2A4D50CF
:1038C00055204661756C742A2A000A2020537461C1
:1038D0007475732052656769737465723A20000AC3
:1038E000202020204661756C7420416464726573E9
:1038F000733A20000A202020204650204C617A791B
:1039000020507265736572766174696F6E000A206B
:10391000202020537461636B696E67204572726F5B
:103920007220772F205350203D20000A2020202095
:10393000556E737461636B696E67204572726F7246
:1039400020772F205350203D20000A2020202044A3
:1039500061746120416363657373000A2020202035
:10396000496E737472756374696F6E204665746313
:1039700068000A2A2A427573204661756C742A2AE7
:10398000000A20202020496D7072656369736520EC
:103990004461746120416363657373000A202020D1
:1039A00020507265636973652044617461204163CE
:1039B00063657373000A20202020496E737472754A
:1039C0006374696F6E205072656665746368000A7F
:1039D0002A2A5573616765204661756C742A2A002E
:1039E0000A20202020446976696465206279205A83
:1039F00065726F000A20202020556E616C69676E29
:103A0000656420416363657373000A2020202043AE
:103A10006F70726F636573736F7220416363657358
:103A200073000A20202020496E76616C696420456D
:103A30007863657074696F6E2052657475726E205C
:103A40005374617465000A20202020496E76616CF1
:103A50006964205374617465000A20202020556E2B
:103A6000646566696E656420496E7374727563740B
:103A7000696F6E000A2A2A48617264204661756C7B
:103A8000742A2A000A202020204465627567204598
:103A900076656E74000A20202020566563746F726C
:103AA000205461626C652052656164000A20202008
:103AB00020466F72636564000A0000001000000079
:103AC00011000000040000000500000002000000DA
:103AD0000500000001000000050000004D52495F94
:103AE000554152545F424155443D0000A8C10F402A
:103AF00000C0024000C0024000C0004008000000BA
:103B0000C000000030000000C000000055555555B1
:103B1000A8C10F4000C0024004C0024000000140A4
:103B20001000000000030000000000C003000000BF
:103B300055555555ACC10F4000C0024000C0024071
:103B40000080094000000001000003000000300078
:103B50000000C00055555555ACC10F4000C0024093
:103B600000C0024000C009400000000200000C003C
:103B7000030000000C000000AAAAAAAA4D52495F47
:103B8000554152545F4D4245445F555342004D529A
:103B9000495F554152545F4D4245445F50395F5033
:103BA0003130004D52495F554152545F4D424544BA
:103BB0005F5031335F503134004D52495F554152AF
:103BC000545F4D4245445F5032385F503237004DAC
:103BD00052495F554152545F30004D52495F554143
:103BE00052545F31004D52495F554152545F32008B
:103BF0004D52495F554152545F33004D52495F5514
:103C00004152545F5348415245003C3F786D6C200F
:103C100076657273696F6E3D22312E30223F3E3CD5
:103C200021444F4354595045206D656D6F72792D75
:103C30006D6170205055424C494320222B2F2F4953
:103C4000444E20676E752E6F72672F2F44544420A8
:103C5000474442204D656D6F7279204D617020564A
:103C6000312E302F2F454E222022687474703A2F47
:103C70002F736F75726365776172652E6F72672F30
:103C80006764622F6764622D6D656D6F72792D6D4B
:103C900061702E647464223E3C6D656D6F72792D87
:103CA0006D61703E3C6D656D6F72792074797065E1
:103CB0003D22666C617368222073746172743D22C8
:103CC00030783022206C656E6774683D2230783120
:103CD00030303030223E203C70726F7065727479E3
:103CE000206E616D653D22626C6F636B73697A65EE
:103CF000223E3078313030303C2F70726F706572F8
:103D000074793E3C2F6D656D6F72793E3C6D656DCB
:103D10006F727920747970653D22666C61736822D8
:103D20002073746172743D2230783130303030222B
:103D3000206C656E6774683D2230783730303030E3
:103D4000223E203C70726F7065727479206E616DD6
:103D5000653D22626C6F636B73697A65223E3078D1
:103D6000383030303C2F70726F70657274793E3C21
:103D70002F6D656D6F72793E3C6D656D6F72792048
:103D8000747970653D2272616D2220737461727462
:103D90003D223078313030303030303022206C6588
:103DA0006E6774683D22307838303030223E203CD7
:103DB0002F6D656D6F72793E3C6D656D6F72792008
:103DC000747970653D22726F6D2220737461727414
:103DD0003D223078314646463030303022206C6506
:103DE0006E6774683D22307832303030223E203C9D
:103DF0002F6D656D6F72793E3C6D656D6F727920C8
:103E0000747970653D2272616D22207374617274E1
:103E10003D223078323030374330303022206C65EC
:103E20006E6774683D22307838303030223E203C56
:103E30002F6D656D6F72793E3C6D656D6F72792087
:103E4000747970653D2272616D22207374617274A1
:103E50003D223078323030394330303022206C65AA
:103E60006E6774683D22307834303030223E203C1A
:103E70002F6D656D6F72793E3C6D656D6F72792047
:103E8000747970653D2272616D2220737461727461
:103E90003D223078323230303030303022206C6584
:103EA0006E6774683D2230783230303030303022E6
:103EB0003E203C2F6D656D6F72793E3C6D656D6F78
:103EC000727920747970653D2272616D222073745D
:103ED0006172743D223078343030303030303022EE
:103EE000206C656E6774683D223078313430303034
:103EF000223E203C2F6D656D6F72793E3C6D656D85
:103F00006F727920747970653D2272616D22207321
:103F1000746172743D223078343030313830303052
:103F200022206C656E6774683D22307833343030FF
:103F300030223E203C2F6D656D6F72793E3C6D6581
:103F40006D6F727920747970653D2272616D2220E7
:103F500073746172743D22307834303035433030C0
:103F60003022206C656E6774683D223078343030C2
:103F700030223E203C2F6D656D6F72793E3C6D6541
:103F80006D6F727920747970653D2272616D2220A7
:103F900073746172743D2230783430303838303088
:103FA0003022206C656E6774683D22307831433072
:103FB0003030223E203C2F6D656D6F72793E3C6D36
:103FC000656D6F727920747970653D2272616D2222
:103FD0002073746172743D2230783430304138304F
:103FE000303022206C656E6774683D223078343042
:103FF0003030223E203C2F6D656D6F72793E3C6DF6
:10400000656D6F727920747970653D2272616D22E1
:104010002073746172743D22307834303042303015
:10402000303022206C656E6774683D223078343001
:104030003030223E203C2F6D656D6F72793E3C6DB5
:10404000656D6F727920747970653D2272616D22A1
:104050002073746172743D223078343030423830CD
:10406000303022206C656E6774683D2230783830BD
:104070003030223E203C2F6D656D6F72793E3C6D75
:10408000656D6F727920747970653D2272616D2261
:104090002073746172743D2230783430304643307E
:1040A000303022206C656E6774683D223078343081
:1040B0003030223E203C2F6D656D6F72793E3C6D35
:1040C000656D6F727920747970653D2272616D2221
:1040D0002073746172743D22307834323030303065
:1040E000303022206C656E6774683D223078323043
:1040F0003030303030223E203C2F6D656D6F72794C
:104100003E3C6D656D6F727920747970653D2272E9
:10411000616D222073746172743D223078353030C5
:10412000303030303022206C656E6774683D22304C
:104130007838303030223E203C2F6D656D6F7279BB
:104140003E3C6D656D6F727920747970653D2272A9
:10415000616D222073746172743D22307835303085
:10416000304330303022206C656E6774683D2230F9
:104170007834303030223E203C2F6D656D6F72797F
:104180003E3C6D656D6F727920747970653D227269
:10419000616D222073746172743D22307845303035
:1041A000303030303022206C656E6774683D2230CC
:1041B00078313030303030223E203C2F6D656D6FCD
:1041C00072793E3C2F6D656D6F72792D6D61703E19
:1041D000003130313030303030303030303030300D
:1041E000303030303030303032463746303030309A
:1041F0003000000000303132333435363738396121
:10420000626364656645303100453035004F4B00D0
:1042100046636C6F73652C0046737461742C002CBC
:1042200043004672656E616D652C00467772697455
:10423000652C00466F70656E2C0046667374617461
:104240002C0046726561642C00466C7365656B2CAE
:104250000046756E6C696E6B2C00453033005866F5
:10426000657200537570706F72746564007461726A
:104270006765742E786D6C0071586665723A6D656D
:104280006D6F72792D6D61703A726561642B3B714F
:10429000586665723A66656174757265733A7265DF
:1042A00061642B3B5061636B657453697A653D00B3
:1042B0007461726765742E786D6C006665617475E3
:1042C000726573006D656D6F72792D6D617000722E
:0C42D00065616400307800000000000010
:0C42DC0000D8B805F1000000CD00000083
:0400000300002DE9E3
:00000001FF
