:1000000000800010CD2E0000012F00009717000087
:100010009B1700009F170000A317000000000000BE
:1000200000000000000000000000000005030000C8
:10003000A7170000000000000F2F0000112F000084
:10004000152F0000172F0000192F00001B2F000094
:100050001D2F0000AB170000AF170000B317000002
:10006000B7170000272F0000292F00002B2F0000BA
:100070002D2F00002F2F0000312F0000332F000004
:10008000352F0000372F0000392F00003B2F0000D4
:100090003D2F00003F2F0000412F0000432F0000A4
:1000A000452F0000472F0000492F00004B2F000074
:1000B0004D2F00004F2F0000512F0000532F000044
:1000C000552F0000572F0000592F000010B5054C88
:1000D000237833B9044810B10448AFF300800121FC
:1000E000217010BDD800001000000000BC430000CB
:1000F00008B5064B1BB106480649AFF30080064819
:10010000016811B1054A02B1904708BD0000000026
:10011000BC430000DC000010D40000100000000010
:100120004EF69053CEF200031B6803F47F434FEA70
:1001300013231846704700BF08B5FFF7F1FF0346C9
:1001400003F1FF33184608BD00B583B00190FFF7F7
:10015000E7FF0246019B9A4294BF00230123DBB2D2
:10016000184603B000BD00BF08B5FFF7D9FF03462E
:10017000002B14BF00230123DBB2184608BD00BFCB
:1001800008B5FFF7F1FF0346002B0CBF0023012346
:10019000DBB2002B10D14EF69053CEF200034EF698
:1001A0009052CEF20002526822F001025A60BFF370
:1001B0004F8FBFF36F8F00E000BF08BD08B5FFF79A
:1001C000D3FF0346002B0CBF00230123DBB2002B1F
:1001D00010D14EF69053CEF200034EF69052CEF26E
:1001E0000002526842F003025A60BFF34F8FBFF320
:1001F0006F8F00E000BF08BD00B583B0019001988B
:10020000FFF7A2FF0346002B14BF00230123DBB23C
:10021000002B02D04FF0000307E04EF69053CEF2D1
:100220000003019A9A604FF00103184603B000BD25
:1002300000B583B00190FFF797FF0346002B0CBF7A
:1002400000230123DBB2002B08D14EF69053CEF2EF
:100250000003019A4FEA4212DA6000E000BF03B0E7
:1002600000BD00BF00B583B00190FFF77DFF0346DE
:10027000002B0CBF00230123DBB2002B06D14EF66E
:100280009053CEF20003019A1A6100E000BF03B060
:1002900000BD00BF704700BF704700BF4FF46D4303
:1002A000CEF200034FF46D42CEF20002526942F0EA
:1002B00008025A61704700BF08B5FFF73DFF0346CB
:1002C0001846FFF799FF4FF00000FFF7B1FF4FF01E
:1002D0003F00C0F20010FFF7C5FF08BD08B5FFF7EB
:1002E0004FFFFFF7E9FFFFF769FF08BD08B5FFF70C
:1002F000D5FFFFF7F3FFFFF7CDFFFFF7CDFF00BE00
:10030000FDE700BF704700BF00B583B040F2544224
:10031000C1F2000240F2D803C1F20003D31A0193E4
:10032000019B40F2D800C1F200004FF000011A46D4
:1003300003F02BF943F23460C0F2000000F00EF835
:10034000AFF3008003F0F2F8FFF7D0FF00900098C1
:1003500002F08AFD4FF0FF331846704770B5002158
:100360009EB024220E4C06460E4803F00EF90025DE
:1003700001A8256000F0FCF901A83146256000F0D5
:1003800001FA236813B901A801F034FC206820B9F0
:1003900004494A6942F003034B611EB070BD00BFBF
:1003A0004C010010F400001010B500F0EBFD044605
:1003B00000F0ECFD024603482146BDE8104001F084
:1003C00099BC00BFFC00001010B50446FFF7ECFF1D
:1003D00002482146BDE8104001F040BDFC0000107D
:1003E000024B586900F00400704700BFF400001091
:1003F00008B5054B586910F0020004D001F050FA1E
:10040000003018BF012008BDF4000010044B5A69E9
:1004100010B142F0040001E022F00400586170477E
:10042000F4000010034BD869011F4A4252EB01004F
:10043000704700BFF400001008B500F0EDFE034B5C
:100440009869D969BDE8084000F092BEF400001038
:10045000024B586900F00200704700BFF400001022
:10046000014B83F820007047F4000010014B93F813
:1004700020007047F4000010014B9861D96170476B
:10048000F4000010014B9869704700BFF4000010A1
:1004900000487047FC00001008B5FFF785FF0148D1
:1004A00008BD00BFFC00001008B50A4801F04CFC74
:1004B00028B1FFF779FF0748074901F0CFFC05484D
:1004C00001F020FC054800F10801BDE8084000F0FB
:1004D00009B900BFFC00001048360000F40000100D
:1004E00010B5FFF761FF124800F1080100F094F821
:1004F000104801F043FC00230F4A02EBC3010C79C2
:10050000844206D152F8330080478207044607D55B
:1005100008E001330C2BEFD10848FFF755FF00240A
:10052000FFF7C2FF04F00104002CDAD010BD00BFB9
:10053000F4000010FC0000104C360000BE36000035
:1005400070B5FFF755FF054600F014FD064601F0B3
:100550008BF930B101F064F918B9BDE8704001F0D1
:100560008FB9AFF30080FFF743FF60B101F0A6F948
:100570000028FBD101F05EF92B2804D001F010FB1C
:1005800001F0AAF9F2E700F06BFF00F001FD134C57
:10059000052884F820000FD100F079F960B100F04F
:1005A00080F948B146B900F06DFDAFF30080616994
:1005B00021F00203636170BD1DB900F01DFD02F062
:1005C0005DF9FFF78DFF00F05DFDAFF30080034B99
:1005D0005A6922F00200586170BD00BFF40000109B
:1005E000A0F16103052B01D857387047A0F14101F4
:1005F000052901D8373870473038C2B2092A07D9DF
:1006000004480368022BB8BF022303604FF0FF3099
:10061000704700BF4C010010F8B5082204460D4693
:10062000002102F0B2FF25602679242E04D001F0CB
:1006300001F9C6B22671F8E7206801F060FB0023DB
:10064000637101F0F7F8C6B22671206801F060FB13
:1006500058B1242EE8D0232E09D065792068771967
:100660006771314601F078FBEBE7232EDCD11C4D9E
:100670000020286001F0DEF8C7B2277101F0DAF837
:10068000C6B226713846FFF7ABFF2968074641B965
:100690003046FFF7A5FF2A681AB9FBB240EA0317F4
:1006A000A771286810B16179CA43A27101F0B8F846
:1006B0000028B9D1A0796379984201D02D2000E0BB
:1006C0002B2001F0C3F8A17962799142ACD1206866
:1006D00001F018FB2068BDE8F84001F010BB00BF36
:1006E0004C01001070B5082204460D46002102F0AE
:1006F0004CFF2560206801F002FB00236371242079
:1007000001F0A4F8206801F003FB48B1206801F073
:1007100035FB054601F09AF86379EE186671F1E74A
:10072000232001F093F866790A4D3009285C06F021
:100730000F0601F08BF8A85D01F088F801F07AF857
:10074000C1B203292071F9D0CAB22B2A01D0242AC0
:10075000D0D170BDAC36000010B50021282204466F
:1007600002F013FF0023E36284F8303010BD000074
:1007700010B50446FFF7F0FF014BA36210BD00BFA8
:10078000BC3600002B4B70B5002204461A600D46A3
:10079000FFF7E2FF04F1300329461A4604F1700620
:1007A000084611F8015B25B102F8015BB242084628
:1007B000F6D10021117000781E4A20B1116801297C
:1007C000B8BF012111601068002832D11A78002AC0
:1007D0002FD01A4613F8015B2DB9164B0020186074
:1007E000117849B912E0A16A481E10F8011F0029CA
:1007F000F3D08D42F9D1ECE7E06A092802D9012053
:10080000186003E0411C44F82020E1621B6883B9B2
:10081000134612F8015B002DD8D0A16A481E10F8CB
:10082000011F0029F4D08D42F9D1002103F8011BEA
:10083000CCE770BD4C0100102DE9F041C76A0646B7
:1008400088460024BC4208D056F824504146284629
:1008500002F0A3FE10B10134F4E700252846BDE8FC
:10086000F0812DE9F041C76A064688460025BD4261
:1008700009D056F825404146204602F0B8FE844291
:1008800002D00135F3E700242046BDE8F08108B529
:1008900000F0A4FC0138C0B201288CBF0020012068
:1008A00008BD1FB500F09AFC0446684600F04EFCF7
:1008B000012C03D1684600F0BAF806E0022C03D1FF
:1008C000684600F005F800E0002004B010BD00000C
:1008D00010B594B0044600F021FC3C4B40F0010000
:1008E000984209D123686168A26803A80393049120
:1008F000059201F019FD67E03549884209D1A068E9
:1009000021686268059003A80391049201F030FD0C
:100910005AE0304A90420DD120680C9002F048FE17
:10092000421C6068A3680E900CA80D920F9301F012
:10093000CFFC49E0284B984209D12068019002F091
:1009400037FE411C01A8029101F08CFD3CE02349D7
:10095000884209D160682268A368079006A80692B9
:10096000089301F03DFD2FE01D4A904203D120681D
:1009700001F022FD28E01B4B984204D194E80300CB
:1009800001F052FD20E01849884209D12068099001
:1009900002F00EFE411C09A80A9101F07FFD13E050
:1009A000124A90420FD12068109002F001FE0130EF
:1009B00011906068129002F0FBFD431C10A8139385
:1009C00001F090FD00E0002014B010BDF10900001E
:1009D000F5090000F9090000010A0000090A0000F9
:1009E0000D0A0000110A0000050A0000FD090000C0
:1009F000FFBE7047FFBE7047FFBE7047FFBE704727
:100A0000FFBE7047FFBE7047FFBE7047FFBE704716
:100A1000FFBE704710B50446FFF734FD031EA8BFA4
:100A2000C3EB04000021BDE8104000F0A1BB30B5CD
:100A3000036899B0092B00F0878010D8022B53D09F
:100A400003D8012B40F088802DE0052B52D0062BD7
:100A500040F082804568284601F08AFC4EE00C2B6D
:100A600052D00CD80A2B77D14168002448680A6814
:100A7000029001A80192039401F0B2FC38E00E2B21
:100A80005ED040F201118B4266D145686C682D68DA
:100A900001F0FAF8242C34BF2246242201462846CD
:100AA00002F06AFD50E040680268416804924A071B
:100AB00005D411F0080405D04FF4027403E04FF49C
:100AC000C06400E0234611F0020F806818BF0223C3
:100AD00043EA04024FF4DB71441C04A80692079118
:100AE000059401F0F5FB03E04368186801F064FC2D
:100AF000044632E04568284601F016FC044660B31F
:100B0000A868FFF787FF28E0436808A9186801F084
:100B10008BFC044608B3FFF7B5FC0146E8B99DF825
:100B200041009DF84220030443EA02239DF843203C
:100B30009DF84000134343EA006000F019FB0CE00D
:100B4000406801F08FFCD3E700F066FB002001460F
:100B500000F00EFB012400E00024204619B030BD57
:100B6000124BF0B51F6806463F0F002303F160608B
:100B700000F581700001BB4213D085680C4C2C40FD
:100B8000944210D10468B4420DD1D0F804C00D468F
:100B90000024012D02D96D080134FAE7A44502D1E1
:100BA000F0BD0020F0BD0133E0E700BF001000E021
:100BB000AFFD0F00044B1968C1F3031001F4E042CC
:100BC00040EA1220704700BF002000E0054B1A6881
:100BD000C2F30721884202D29860012070470020AA
:100BE000704700BF90ED00E070B51E4DAC6A14F088
:100BF000FF0635D01C4801F080FE1C4801F07DFE48
:100C0000304601F0A1FE220605D5194801F075FE17
:100C1000686B01F099FEA30602D5164801F06DFE3F
:100C2000E00607D5144801F068FE144BD3F808021B
:100C300001F08AFE210707D5114801F05EFE0F483A
:100C4000D0F8080201F080FEA20702D50D4801F09D
:100C500054FEE30704D50C48BDE8704001F04DBEDA
:100C600070BD00BF00ED00E09C390000AB39000012
:100C7000C0390000D5390000EF39000050010010E4
:100C80000C3A00002B3A00003C3A000070B5214DB0
:100C9000AC6A240A14F0FF063AD01F4801F02DFE7A
:100CA0001E4801F02AFE304601F04EFE230605D50F
:100CB0001B4801F022FEA86B01F046FEA00602D5FB
:100CC000184801F01AFEE10607D5174801F015FE95
:100CD000164BD3F8080201F037FE220707D5144857
:100CE00001F00BFE1148D0F8080201F02DFE630759
:100CF00002D5104801F001FEA00702D50E4801F010
:100D0000FCFDE10704D50D48BDE8704001F0F5BDDC
:100D100070BD00BF00ED00E0533A0000AB390000A9
:100D2000C0390000D5390000EF3900005001001033
:100D30000C3A0000623A00007D3A0000963A00004A
:100D4000174B10B59C6A240C28D0164801F0D5FD2D
:100D5000154801F0D2FD204601F0F6FDA10502D5AF
:100D6000124801F0CAFDE20502D5114801F0C5FDA7
:100D7000230702D50F4801F0C0FD600702D50E48D9
:100D800001F0BBFDA10702D50C4801F0B6FDE2075A
:100D900004D50B48BDE8104001F0AFBD10BD00BF49
:100DA00000ED00E0B03A0000AB390000C13A0000AD
:100DB000D53A0000EB3A0000033B0000273B00005F
:100DC0003A3B00000C4B034013B14FF0FF3070472B
:100DD00020F0604222F0030343F0010239B910F021
:100DE000020F0CBF4FF080404FF0004001E04FF089
:100DF00040401043704700BF010000E038B5FFF7E6
:100E0000E1FF0446FFF7D6FE084A0023834211465D
:100E100009D052F8045B25F0005525F00205AC42DC
:100E200002D00133F2E70021084638BD082000E077
:100E3000044B1868C0F30721D1F1010038BF00202E
:100E4000704700BF90ED00E008B5FFF7F1FF40B933
:100E5000044B5A6822F001005860BFF34F8FBFF374
:100E60006F8F08BD90ED00E073B5044602AD45F804
:100E7000042D00F097FF20463A2100F06DFF013D60
:100E80000DF1070615F8011F204600F08BFFB54253
:100E9000F8D120463B2100F05FFF7CBD064B07499F
:100EA000DA6822F48020D860D1F8003223F00402FE
:100EB000C1F80022704700BFF0ED00E050010010C3
:100EC00010B500F0CDFB00214FF43E72234802F034
:100ED0005CFB234B2349DA6842F08070D8600C68D1
:100EE0000023200F03F1606202F581710C0183423F
:100EF0000AD0002121606160A268013322F4D77119
:100F000021F00102A260EDE7FFF754FE164A1368D4
:100F1000C3F30321401815490023834204D0002461
:100F200041F8044B0133F8E7106840F00304146003
:100F30000F4C0822E27784F8222084F82320FFF760
:100F4000ADFF074B0022D96821F40030D86084F847
:100F50002020D96841F48030D86010BD50010010C5
:100F6000F0ED00E0001000E0002000E0082000E0CC
:100F700000ED00E0024BD3F8000200F004007047DF
:100F80005001001000487047BC03001089207047D2
:100F900010B5EFF30583D8B2811E162924D8DFE8F7
:100FA00001F00C25250E10232323232312232323B2
:100FB00023232323230C0C0C0C00022010BD0A2039
:100FC00010BD042010BD0A4A0023106B094ADC0042
:100FD00052F83310014204D0054812190163107908
:100FE00010BD0133042BF1D1112010BD0B2010BD19
:100FF00000ED00E09C3B000010B5EFF30583D8B294
:10100000C11E03292FD8DFE801F002212427164A48
:101010001648D46A01F071FC154801F06EFC2046B8
:1010200001F092FC002C02DA124801F066FCA307E2
:1010300002D5114801F061FC60000FD50F4801F0A6
:101040005CFCFFF7D1FDFFF721FE05E0FFF7CCFDCB
:1010500004E0FFF71BFE01E0FFF772FE0848BDE861
:10106000104001F04ABC10BD00ED00E0553B00000F
:10107000AB390000653B0000763B00008D3B000073
:10108000993B000070B5204CFFF7DEFE20681F4D35
:10109000C0F30721481EFFF799FDD5F85C62FFF702
:1010A000C7FE08B97601E660D5F86042FFF7C0FEDA
:1010B00008B9154B1C61154CD4F85802FFF786FD92
:1010C000D4F85442FFF7B4FE28B90F4A5460BFF376
:1010D0004F8FBFF36F8F0D4B1A4611680C480433C6
:1010E00081420C4902D18B421A46F5D3074B8A1A2A
:1010F000D3F8680208498242C8BFC3F86822CA68A8
:1011000022F40033CB6070BD90ED00E05001001080
:10111000EFBEADDE50030010F0ED00E0014BD3F860
:101120004802704750010010014BC3F84802704755
:1011300050010010044BD3F84802D3F85012401A63
:1011400018BF0120704700BF50010010074A30B59A
:10115000D2F81812D2F81052D2F81442D2F80C2257
:10116000846080E82400C16030BD00BF50010010E1
:10117000034B0028C3F80C02BCBF024B1960704738
:101180005001001050040010BFF34F8F054BD3F8EF
:101190000002D3F8002200F0020022F00201C3F89E
:1011A000001270475001001010B500F01FFB0446FC
:1011B000FFF7EAFF30B1044B00241A680A2AB8BFCF
:1011C0000A221A60204610BD4C010010024BD3F8D1
:1011D0004802FFF7E9BF00BF5001001038B50D4DC0
:1011E00000242C60FFF7F2FF2B6813B12C6020461F
:1011F00038BD4BF6AB61884208D05431884207D0E5
:10120000B0F53E4F0CBF0320002038BD012038BD93
:10121000022038BD4C01001038B50F4C0025256068
:10122000FFF7D4FF23680BB1256038BD00F4784088
:10123000B0F5684F094905D0B0F5704F02D0B0F550
:10124000784F03D1D1F84802031D02E0D1F84822BB
:10125000931CC1F8483238BD4C01001050010010F9
:1012600038B50D4C05460C21D4F83C22FFF7FCFDA7
:1012700028460D21D4F84022FFF7F6FD28460E211E
:10128000D4F84422FFF7F0FDD4F8482228460F2175
:10129000BDE83840FFF7E8BD5001001070B5064CBE
:1012A000064604F1440514F8011F304600F07AFDAB
:1012B000AC42F8D170BD00BF5B03001070B5064CA6
:1012C000064604F14405304600F088FD04F8010F9D
:1012D000AC42F8D170BD00BF5B030010194B70B574
:1012E0000024022905461C6008D001D3042904D932
:1012F00004221A604FF0FF3400E001241868F8B9A6
:1013000028462146FFF77AFD0646C8B9FFF752FC8A
:101310000D4A3346834216460CD052F8041BC907C7
:1013200001D50133F6E72EB128462146FFF74AFDE5
:10133000306070BD03480268082AB8BF0822026006
:1013400070BD00BF4C010010082000E0F8B5324C21
:1013500000232360FFF73AFF256825B900F47F409A
:10136000B0F55F4F2DD02D4CD4F8005245F0040657
:10137000294DC4F8006200262E60FFF727FF296878
:10138000074629B9D4F84832981CFFF70DFF00E052
:1013900030462A681AB120490020086023E027F06F
:1013A0000F07BFB24FF280318F421CD148F61103B4
:1013B000984202D05A1C904215D1082282F311881B
:1013C00024E017498A680221D36A23F00100FFF75D
:1013D00085FF2068114990B9D1F8002242F010032E
:1013E000C1F80032F8BDEFF312820C4BD3F80002C3
:1013F000C3F8642240F00801C3F80012DDE7D1F819
:101400000002256040F00402C1F80022054BD868B4
:1014100040F48021D960F8BD4C010010500100104B
:1014200000ED00E0F0ED00E00C4B0022022910B5C9
:101430001A6003D004D3042902D806E0114605E05F
:10144000042119604FF0FF3100E001211C681CB934
:10145000FFF7D4FC00B1046010BD00BF4C010010C8
:1014600010B53D4CD4F80032D4F8481223F00200F5
:10147000C4F80002C4F85012FFF7DAFC374B08B981
:101480005A6801E04FF0FF32C4F854229868C4F85B
:1014900058021C68C4F30721481EFFF797FBFFF7AB
:1014A000C7FC18B92D4BDA68500900E000202A4C1F
:1014B000C4F85C02FFF7BCFC2146284C08B923693C
:1014C00000E00023C1F86032FFF7BEFC2268C2F3DF
:1014D00007200138FFF77AFBFFF7AAFC08B91F497C
:1014E000C860FFF7A5FC10B91D4A1C4B1A61FFF735
:1014F0009FFC40B91948416841F003024260BFF3C4
:101500004F8FBFF36F8F144BD3F8000202070CD537
:10151000D3F80012D3F8640221F00802C3F80022C5
:1015200080F311880021C3F86412D3F800320A4A0C
:10153000D8060DD5D2F8000220F01001C2F8001232
:10154000084A02219368D86A20F00100FFF76CFF77
:10155000BDE81040FFF7A2BC5001001090ED00E084
:101560003F00000100ED00E0022A98BF204B70B55B
:1015700094BF9D5C00254B1E0B4206460C4606D1CF
:1015800048423040864202D1691F022905D91949D3
:1015900008680428B8BF042027E0304621462A46C0
:1015A000FFF7DEFA10BB144A1368190F00F16062EE
:1015B00002F581731B01884212D09A6812F00F0263
:1015C00001D00130F2E75BB1012C02D9640801328D
:1015D000FAE75A605868904202D11E609D6070BD63
:1015E000044908680828B8BF0820086070BD00BF1B
:1015F000BC3B00004C010010001000E0022A98BF24
:10160000114B10B594BF9A5C00224C1E0C4006D1C1
:101610004B420340984202D1531F022B06D90B487C
:101620000268042AB8BF0422026010BDFFF798FACE
:1016300040B104604460816821F4D77323F0010253
:10164000826010BD10BD00BFBC3B00004C0100100B
:1016500040F2B9207047000000487047BF360000D4
:101660007047564800F003B8554800F000B81EF027
:10167000040F0CBFEFF30881EFF30981514A1160A9
:1016800087465148514A0068104200F00380504993
:1016900000F000B84F48026812F0010F1EBF42F080
:1016A0000202026000F056B842F0010202604020DF
:1016B000DFF820C1484A13466CE902230138FBD108
:1016C000EFF3088245480260424880F308884448A6
:1016D0002DE90050B1E80C50A0E80C50A0E8F00F44
:1016E0003CC940F8082B38C015F4007F18BF0431FE
:1016F00040F8101CFEF724FF3A4850F80C1C026812
:1017000022F4007241F8042D30E90C0021E90C00AC
:1017100050F808CD41F804CD30E9F00F30E90C5015
:1017200021E90C50BDE800502C48026882F308887B
:101730001EF0040F0CBF81F3088881F30988254847
:10174000016821F001010160BFF34F8FBFF36F8F7C
:1017500000F01BB81C48006810F4806F40F0158042
:101760008869028802F47842B2F5684F08D0B2F571
:10177000704F05D0B2F5784F02D000F1020001E0C1
:1017800000F10400886100F000B80F4801680160B2
:10179000416841607047FFF767BFFFF765BFFFF71C
:1017A00063BFFFF75EBFFFF75CBFFFF75ABFFFF7EE
:1017B00058BFFFF756BFFFF754BF00009516000053
:1017C000831600005803001028ED00E018180000F0
:1017D0007C39000050030010EFBEADDE5403001052
:1017E0005C0300109C03001000687047008880B202
:1017F0007047007870470160704701807047017042
:1018000070470000034B04481A68111A03488B10F4
:101810005843704748040010C03B0000398EE3383D
:10182000034B1868C1680A7D02F00100704700BFD1
:101830004804001008B5FFF7F3FF0028FBD0024B67
:101840001868C168087808BD48040010054B19687D
:10185000CB681A7D02F02001CAB2002AF9D0C0B2CA
:10186000187070474804001010B5EFF30584FFF7B7
:10187000C9FFE3B21530191A4842484110BD0000B3
:10188000024B1868C1688B68704700BF480400109D
:10189000024B586800F00100704700BF4804001078
:1018A000054B5868820704D400F0010181F0010063
:1018B00070470020704700BF4804001008B5FFF7CC
:1018C000EFFF28B1034B1868C1680A6A02F00100F3
:1018D00008BD00BF4804001008B5FFF7E1FF20B1C4
:1018E000024B07221868C1680A6208BD480400104C
:1018F0002DE9F04F87B00446002103A80C2201F027
:1019000044FE20469549FEF797FF08B10023049353
:1019100020469349FEF790FF08B10320049020462B
:101920009049FEF789FF08B10121049120468E49B4
:10193000FEF782FF08B10222049220468B49FEF78F
:101940007BFF08B10027049720468949FEF774FF02
:1019500008B10123049320468649FEF76DFF08B1C4
:101960000220049020468449FEF766FF08B1032157
:10197000049120468149FEF774FFD8B10E30002350
:1019800010F8012BAAB17E4F00253D6010F8011C14
:101990003039CEB2092E02D90921396029463A6878
:1019A0001AB177490020086003E00A2707FB0313F8
:1019B000E6E7059320467349FEF73EFF08B1012292
:1019C0000392049F242179436F48704A039F431870
:1019D000136027B1516841F001035360BBE06C4ACA
:1019E0001C69D2F8C4502543C2F8C4504258596902
:1019F000106820EA010414605869156800F0553138
:101A000029431160DA68102582F82850DC6801212A
:101A10002172DA6803201073059A002A5BD05D4CAE
:101A200020684FEA101CBCFBF2F402FB04F0604596
:101A30003AD016014FEA0C2C01960D464FF0FF38B4
:101A40004FEA011E16460120884228D24FEA0619A5
:101A5000B9FBFEFA0AEB020BBCFBFBF909F1800AA9
:101A60004FEA1A294FEA091A00FB0AFB4FEA0B1B3F
:101A7000BBFBFEFBDA44DDF804B0BCFBFAFACBEBAF
:101A80000A0ABAF1000FB8BFCAF1000AC24503D270
:101A900007460D464C46D0460130B618D4E7013112
:101AA0001029CDD147EA0515D868EDB2017B41F088
:101AB0008002E1B2C4F3072402730170047180F85C
:101AC0002850D868314C027B02F07F0101736068B6
:101AD00040F0020262605A6899691468186A24EA40
:101AE00001040840044314609A68D9691468186AAC
:101AF00024EA0104084044EA00011160DA68117B1D
:101B0000107B00F07F001073DA6801205060DB6802
:101B10001973FFF7E1FEFFF775FE411DC8B2C2B2AF
:101B200053B2002B06DA1C4B00F00F01CB1800213A
:101B3000197606E003F1604101F56143002183F865
:101B4000001352B200F01F000123510903FA00F202
:101B5000124840F8212007B0BDE8F08F503C00004B
:101B6000623C0000773C00008D3C0000A33C00007C
:101B7000AE3C0000B93C0000C43C0000DE3C00006C
:101B80004C010010CF3C0000C03B00004804001096
:101B900000C00F40C8000010FCEC00E000E100E0D5
:101BA00038B5134B1C685D68DA6822F07F4040B19D
:101BB00000221A60D96821F07F4058609A6005229F
:101BC0001A60FFF72DFE0A4B30B9D96821F07F402B
:101BD00010B11A68D103F4D525F07F455D601C6013
:101BE000FFF71EFE10B1FFF725FEDAE738BD00BF94
:101BF00010E000E01F4A002370B542F8043B1E4B82
:101C0000064603F1200518685968144603C40833D2
:101C1000AB422246F7D11868184920600B68184C6F
:101C20000025D80725601BD5164800F03DF800F0C8
:101C30002FF8256041F289300138104A02D011682E
:101C4000C907F9D413680E4813F0010F01D005221B
:101C50000260016821B9074B186840F001021A6060
:101C600007490B6823B93046BDE8704000F0CEBF8D
:101C700070BD00BF18010010ED3C0000F0ED00E069
:101C80004C0100101C010010004870471C0100109E
:101C900082B001A940F20510ABBE00280CBF01982C
:101CA0004FF0FF3002B0704782B0009021200190C9
:101CB000694640F20110ABBE02B07047A0F161036B
:101CC000052B01D857387047A0F14101052901D8EB
:101CD000373870473038C2B2092A07D90448036838
:101CE000022BB8BF022303604FF0FF30704700BFE4
:101CF0004C0100108A1801604260816070470368DF
:101D00008360704783684268934238BF436070477E
:101D100083684068834294BFC3EB00000020704793
:101D200038B50D460446FFF7F3FFA84208D205492F
:101D300063680A68581C012AB8BF0122A0600A60C3
:101D400038BD00BF4C01001082684068824294BFD9
:101D5000002001207047000070B5074D00230E469B
:101D6000012104462B60FFF7DBFF286818B9A16842
:101D700001F8016BA16070BD4C01001070B5084EF8
:101D80000024012105463460FFF7CAFF336823B9F8
:101D9000A96811F8010BA96070BD204670BD00BF95
:101DA0004C01001070B50B4E00230D460221044675
:101DB0003360FFF7B5FF306850B9074A290905F0CD
:101DC0000F05A368505C525D18705A700233A3600F
:101DD00070BD00BF4C010010113D000070B5114EE8
:101DE0000023022104463360FFF79AFF306808B1F0
:101DF000002514E0A1680878FFF760FF336802014E
:101E0000D5B22BB9A0684078FFF758FF2843C5B278
:101E100004490A68002AEBD1A368981CA0602846F0
:101E200070BD00BF4C010010F8B50B4F00230C46ED
:101E30001146054616463B60FFF772FF386848B901
:101E4000A619B44206D014F8012BA96801F8012B99
:101E5000A960F6E7F8BD00BF4C01001038B5054693
:101E600008460C4601F0A4FB214602462846BDE880
:101E70003840FFF7D9BF0000F8B5002504462E46CC
:101E8000134F002320463B60FFF778FF396861B9A4
:101E9000FFF714FF3A6832B1A0682368984204D96A
:101EA000411EA16001E000EB0515094802680AB96E
:101EB0000136E5E7002361680360A068884288BFB7
:101EC000A1601EB9024A0325156035462846F8BDB3
:101ED0004C0100102DE9F04180460E4619B9BDE8CD
:101EE000F041FFF75FBF4FF07F430024334203D13F
:101EF00001341B0A042CF9D1C4F10304E500631C6E
:101F00000DD026FA05F1074F00203860C9B24046CF
:101F1000FFF748FF3A68013C083D002AEFD0BDE8D2
:101F2000F08100BF4C0100100A4B70B500220C1E5E
:101F300006461A601D4603DA2D216442FFF70CFFA6
:101F4000286828B930462146BDE87040FFF7C2BF77
:101F500070BD00BF4C01001070B50B4D00230E4644
:101F600004462B60FFF7D4FE294608B901222A60F7
:101F7000086838B9A3681978B14204D1581CA06028
:101F8000012070BD002070BD4C010010F8B5134C4D
:101F900000252D2107462560FFF7DEFF2368064652
:101FA0001BB93846FFF768FF00E0284622680B4956
:101FB0008AB936B900280FDA03230B606FF00040AE
:101FC000F8BDB0F1004F04D9032008604FF0004085
:101FD000F8BD4042F8BD0020F8BD00BF4C01001024
:101FE0002DE9F041124E0023144605468846336021
:101FF000FFF78EFEA04201D20120306037687FB922
:10200000AE6841463046224601F0DAFA804638B9D9
:102010002846FFF77DFEA04205D0315D3A2902D067
:102020000020BDE8F0813419AC600120BDE8F081EA
:102030004C010010034B196804290CBF02480348E7
:10204000FEF7C2B94C010010213D0000253D000003
:1020500070B50646FEF71CFA0F4C002305462360B8
:10206000FFF78CFE30722068A8B92C21284600F0BA
:10207000BFF8216879B9284600F0ACF822683060D2
:102080004AB928462C2100F0B3F823681BB928462A
:1020900000F0A0F8706070BD4C01001010B5094C44
:1020A0000246002303C92360FFF7A8FA206818B18D
:1020B000BDE81040FFF7BEBF0348BDE81040FEF783
:1020C00083B900BF4C010010293D000010B5094C38
:1020D0000246002303C92360FFF746FA206818B1BF
:1020E000BDE81040FFF7A6BF0348BDE81040FEF76B
:1020F0006BB900BF4C010010293D00001FB5164C04
:10210000002301A82360FFF7A3FF206808B113484C
:102110001DE09DF80C103139032917D8DFE801F0D4
:10212000020D0F1101980299FFF7D8F8226812B139
:10213000FFF780FF0DE00A4809E0002002E00120DF
:1021400000E0022001A9FFF7C1FF02E00548FEF709
:102150003BF9002004B010BD4C010010213D0000EF
:10216000293D0000BE3600001FB5164C002301A813
:102170002360FFF76DFF206808B113481DE09DF84C
:102180000C103139032917D8DFE801F0020D0F11C7
:1021900001980299FFF748F9226812B1FFF74AFF48
:1021A0000DE00A4809E0002002E0012000E00220E2
:1021B00001A9FFF773FF02E00548FEF705F90020CB
:1021C00004B010BD4C010010213D0000293D00006D
:1021D000BE36000010B5054C00232360FFF74CFE0F
:1021E0002168002918BF002010BD00BF4C0100105D
:1021F00008B5FFF7B1FE28B9034B1A68042AB8BF27
:1022000004221A6008BD00BF4C01001070B50A4CD2
:1022100000230D4606462360FFF7DCFF2860206898
:1022200048B92C213046FFF7E3FF216819B9304641
:10223000FFF7D0FF686070BD4C01001038B5074C47
:10224000002305462360FFF7E1FF206828B92846F0
:102250003A21BDE83840FFF7CBBF38BD4C01001034
:1022600070B5FEF715F90646FEF764FF18B9FEF7DC
:10227000B5FF032812D000250A4C00233046236006
:10228000FFF7A8FF216809B9FEF74EFF206810B1DB
:10229000044B00221A6045F0030070BDFEF7BCFF3E
:1022A0000425E9E74C01001008B5FEF719F9FEF71F
:1022B00097F848B1FEF7B6F808B9FEF7BDF8022066
:1022C000FEF7CEF8002008BDFEF7B6F8012008BDE5
:1022D00038B50546FEF7E0F812490446FFF7BEFDA3
:1022E00020462968FFF7F6FD20462F21FFF734FD31
:1022F00020466968FFF7EEFD20462C21FFF72CFDF4
:102300002046A968FFF7E6FD20462C21FFF724FDB3
:102310002046E968FFF7DEFDFEF7C6F8BDE8384065
:10232000FFF7C2BF4E3D000038B50546FEF7B4F8D2
:102330000E490446FFF792FD20462968FFF7CAFDC3
:1023400020462C21FFF708FD20466968FFF7C2FDF3
:1023500020462C21FFF700FD2046A968FFF7BAFDB3
:10236000FEF7A2F8BDE83840FFF79EBF463D0000EB
:1023700038B50546FEF790F80E490446FFF76EFDA6
:1023800020462968FFF7A6FD20462C21FFF7E4FC34
:1023900020466968FFF79EFD20462C21FFF7DCFCF4
:1023A0002046A968FFF796FDFEF77EF8BDE83840A5
:1023B000FFF77ABF603D000038B50446FEF76CF8C1
:1023C00006490546FFF74AFD28462146FFF782FDEC
:1023D000FEF76AF8BDE83840FFF766BF353D0000FC
:1023E00038B50546FEF758F80E490446FFF736FDA6
:1023F00020462968FFF76EFD20462C21FFF7ACFC34
:1024000020466968FFF790FD20462C21FFF7A4FCC9
:102410002046A968FFF788FDFEF746F8BDE838407A
:10242000FFF742BF673D000070B50D460646FEF758
:1024300033F80B490446FFF711FD20463146FFF7FC
:1024400049FD20462C21FFF787FC20462946FFF74F
:1024500041FDFEF729F8BDE87040FFF725BF00BF3A
:10246000553D000038B50546FEF716F80A49044602
:10247000FFF7F4FC20462968FFF72CFD20462F21AA
:10248000FFF76AFC20466968FFF724FDFEF70CF8A9
:10249000BDE83840FFF708BF2C3D000038B50546C1
:1024A000FDF7FAFF0E490446FFF7D8FC20462968DD
:1024B000FFF710FD20462F21FFF74EFC20466968EC
:1024C000FFF708FD20462C21FFF746FC2046A968AF
:1024D000FFF700FDFDF7E8FFBDE83840FFF7E4BE79
:1024E0006F3D000038B50546FDF7D6FF124904469A
:1024F000FFF7B4FC20462968FFF7ECFC20462F21AB
:10250000FFF72AFC20466968FFF7E4FC20462C21EF
:10251000FFF722FC2046A968FFF7DCFC20462F21AC
:10252000FFF71AFC2046E968FFF7D4FCFDF7BCFF73
:10253000BDE83840FFF7B8BE3D3D000070B5FDF77F
:10254000A7FF0446FFF722FD2C2106462046FFF791
:1025500003FD50B12046FFF719FD0B490546022245
:102560002046FFF73DFD044601E00446054630469F
:102570002946FDF781FF2046FDF748FF034B002267
:102580001A60032070BD00BF5D3D00004C010010CB
:1025900037B5FDF77DFF0B4C0023694605462360E8
:1025A000FFF734FE206818B10748FDF70DFF06E07D
:1025B000FDF7FAFE9DE80600284600F075FA0020B7
:1025C0003EBD00BF4C010010213D000037B5FDF7B6
:1025D0005FFF0F4D0023694604462B60FFF72EFE78
:1025E000286808B10B480EE020469DE8060000F080
:1025F00097FA08B1084806E02046FFF7A5FB08B1A6
:10260000064800E00648FDF7DFFE00203EBD00BFA3
:102610004C010010213D0000293D0000483600001B
:10262000763D000037B5FDF733FF0F4D00236946B7
:1026300004462B60FFF702FE286808B10B480EE045
:1026400020469DE8060000F0B9FA08B1084806E007
:102650002046FFF779FB08B1064800E00648FDF781
:10266000B3FE00203EBD00BF4C010010213D000024
:10267000293D000048360000763D00002DE9F84372
:102680000446FDF705FF251D95E8A001AF4206466B
:1026900003D2ED1B4FF06D0903E00025A8464FF073
:1026A0006C09FDF781FE3046FFF732FB404538BF2D
:1026B0008046A84588BF4FF06C093046494688BF20
:1026C000A846FFF749FB21683046C9194246BDE8D4
:1026D000F843FFF7A9BB0000F7B504460E460846CD
:1026E0001022002100F051FF20463A21FFF734FC70
:1026F00030B91E480268042AB8BF0422026034E0E0
:1027000020461B490422FFF76BFC0028F1D020462D
:102710003A21FFF721FC0028EBD0144D0023154986
:1027200020460A222B60FFF75BFC07463A21204631
:1027300027B1FFF711FC90B10E4803E0FFF70CFC46
:1027400068B1384630600948026872B96946204667
:10275000FFF75CFD009B0199B360F16005E029681B
:102760000429B8BF04212960ECE7FEBD4C0100102C
:102770007A3D00008E3D00007FB5FDF789FE3649A9
:1027800009220446FFF72CFC064668B1FEF7FEFB63
:102790000446FDF781FE31490546FFF75FFB2846F9
:1027A0002146FFF797FB54E020462D490422FFF70E
:1027B00017FC00284AD0FDF76BFE3A210546FFF7CB
:1027C000CBFB002836D0284626490A22FFF708FC12
:1027D0000446A0B1244CFDF75BFE69462660FFF776
:1027E0007BFF22681AB9009808B104212160236890
:1027F00003BB00F02BFA009000F024FA21E02846F9
:102800001A490822FFF7ECFB00B3174DFDF740FE15
:1028100069462C60FFF760FF2B6843B9009818B138
:10282000134900F0BAFE10B10F48042202600E49AD
:102830000B680BB10F480AE0FEF70EFF0090FEF7A1
:1028400007FF01906846FFF719FF02E00A48FDF70D
:10285000BBFD002004B070BD843D0000A43D00001D
:102860007F3D0000E53D00004C010010DC3D000014
:10287000993D0000213D0000BE36000010B5FDF777
:102880000BFE54210446FFF767FAFDF7EFFD014602
:102890002046FFF787FA2046FEF7E2FCFDF704FE2C
:1028A000022010BD08B5FDF7F7FDFEF7F7FC00208C
:1028B00008BD000010B5FDF7EBFD0446FEF7FEFC79
:1028C0002046FFF741FA08B1034800E00348FDF74E
:1028D0007BFD002010BD00BF48360000293D0000F0
:1028E00008B5FFF7BDFC430703D5BDE80840FFF777
:1028F000C5BFFEF72BFD032008BD38B50546FEF722
:10290000C7FF50B1FDF7A4FD38B1013D15F8010F27
:1029100010B1FEF79BFFF9E738BDFDF7BDFD4F2174
:102920000446FFF719FA013D15F8011F204611B1C1
:10293000FFF738FAF8E7FFF707FA18B9BDE83840AB
:10294000FDF7B2BD38BD000010B586B00B220446BD
:10295000694603A8FFF7CEF903A80849FFF77EFAF6
:1029600003A82146FFF7B6FA03A80021FFF7F4F900
:102970006846FFF7C2FF06B010BD00BFF03D000083
:10298000F8B507468E180C46B44214D00B4D002300
:1029900038462B60FFF722FA0146286808B100206C
:1029A000F8BD2046651CFEF72AFFFEF7EDFB002868
:1029B000F5D12C46E8E70120F8BD00BF4C0100101E
:1029C000F8B505468C180846A0420CD0461CFEF708
:1029D00010FF0746FEF7D8FB38B928463946FFF7FF
:1029E000E1F93046F0E70120F8BD0020F8BD000015
:1029F0002DE9F041064601EB02080C46444519D08A
:102A00000F4D002330462B60FFF7B8F92F685FB9F0
:102A10007D2809D13046FFF7B1F9296819B980F04E
:102A20002000C0B200E03846054A13682BB904F80C
:102A3000010BE3E70120BDE8F0810020BDE8F08153
:102A40004C0100102DE9F041064601EB02080C464E
:102A5000444524D0134D002330462B60FFF78EF9F8
:102A60002F6801465FB97D2809D13046FFF786F906
:102A7000296819B980F02000C1B200E03946094A3E
:102A8000136813B10020BDE8F0812046651CFEF7F5
:102A9000B6FEFEF779FB0028F4D12C46D8E70120DA
:102AA000BDE8F0814C010010022A37B505461446F6
:102AB00002D0042A2DD115E011F0010429D10846D5
:102AC000FEF794FEADF80200FEF75EFBF8B928466B
:102AD0009DF80210FFF766F928469DF80310FFF7EE
:102AE00061F912E011F0030413D10846FEF77CFEF1
:102AF0000190FEF749FB50B9044601A9095D28463B
:102B00000134FFF74FF9042CF7D1012006E02046ED
:102B100004E003B0BDE83040FFF752BF03B030BD62
:102B2000022A2DE9F34106460C4602D0042A33D18D
:102B300018E011F001032FD11F4D2B60FFF74EF964
:102B40002A688DF80200002A2BD13046FFF746F99B
:102B500029688DF8030021BB2046BDF80210FEF75E
:102B60004CFE20E011F0030516D1DFF84C80002761
:102B70003046C8F80070FFF731F901A94855D8F878
:102B80000000013530B9042DEFD120460199FEF740
:102B900032FE08E038460CE002B0BDE8F041FFF735
:102BA000EFBE002005E0FEF7EFFAD0F1010038BFDC
:102BB000002002B0BDE8F0814C010010022A13B5DC
:102BC0000C4602D0042A1ED10CE0CB071BD40DF119
:102BD0000201FFF70DFFC0B12046BDF80210FEF75D
:102BE0000CFE09E08B070ED101A9FFF701FF60B1D0
:102BF00020460199FEF7FFFDFEF7C6FAD0F101006D
:102C000038BF002001E0FFF71DFF1CBD38B50C4C9C
:102C1000002323600546FEF753F9236873B903F1D7
:102C200060420133082102F56140232B80F8001334
:102C3000F5D12846BDE83840FEF75ABE38BD00BF82
:102C40004C01001040F2C650704700000048704729
:102C5000F33D000086B0034600918DF807304FF435
:102C60006D43CEF200039B6805934FF46D43CEF2A3
:102C700000039B68002B22D1059B03934FF08053E8
:102C800005934FF0000304930FE0049B4FEA830386
:102C9000059AD318049A4FEA820203998A18126897
:102CA0001A60049B03F101030493049B302BECD9BD
:102CB0004FF46D43CEF200034FF080529A609DF9BD
:102CC000073003F110034FEA8303059AD318009AE3
:102CD0001A6006B0704700BF4FF44043C4F20F03C0
:102CE0004FF02002C3F8A0214FF44043C4F20F0379
:102CF000D3F8A03103F02003002B0AD000BF4FF41B
:102D00004043C4F20F03D3F8A03103F04003002B7B
:102D1000F5D04FF44043C4F20F034FF00202C3F862
:102D200004214FF44043C4F20F034FF00002C3F8F4
:102D3000A8214FF44043C4F20F034FF00002C3F840
:102D4000AC214FF44043C4F20F034FF00102C3F82B
:102D50000C214FF44043C4F20F034FF00B02C3F8B1
:102D600084204FF44043C4F20F034FF0AA02C3F88B
:102D70008C204FF44043C4F20F034FF05502C3F8C8
:102D80008C204FF44043C4F20F034FF00102C3F80C
:102D900080204FF44043C4F20F034FF0AA02C3F85F
:102DA0008C204FF44043C4F20F034FF05502C3F898
:102DB0008C2000BF4FF44043C4F20F03D3F8883097
:102DC00003F08063002BF5D04FF44043C4F20F03AF
:102DD0004FF00302C3F880204FF44043C4F20F03C6
:102DE0004FF0AA02C3F88C204FF44043C4F20F0303
:102DF0004FF05502C3F88C2000BF4FF44043C4F29B
:102E00000F03D3F8883003F04073002BF5D04FF454
:102E10004043C4F20F034FF00502C3F808214FF4FA
:102E20004043C4F20F0348F2DE72C0F22842C3F8F6
:102E3000C4204FF44043C4F20F034FF00002C3F824
:102E4000C8214FF44043C4F20F034FF44042C4F290
:102E50000F02126822F4704222F03A0242F4405209
:102E600042F03A021A60704700B583B0019000F05A
:102E70000BF80346002B01D000F01CF8019B002B3F
:102E800001D000F055F9FEE708B5FDF763FA0346F7
:102E9000184608BD30B585B001900091019C009D99
:102EA00020462946ABBE04460394039B184605B052
:102EB00030BD00BF00B585B06B464FF01800194615
:102EC000FFF7E8FF0346184605B000BD0749084A6A
:102ED000084B9A42BEBF51F8040B42F8040BFFF7AF
:102EE000F8BF05488047054800470000C043000080
:102EF000C8000010D4000010D92C00000903000005
:102F0000FEE7FEE7FEE7FEE7FEE7FEE7FEE7FEE799
:102F1000FEE7FEE7FEE7FEE7FEE7FEE7FEE7FEE789
:102F2000FEE7FEE7FEE7FEE7FEE7FEE7FEE7FEE779
:102F3000FEE7FEE7FEE7FEE7FEE7FEE7FEE7FEE769
:102F4000FEE7FEE7FEE7FEE7FEE7FEE7FEE7FEE759
:102F5000FEE7FEE7FEE7FEE7FEE700BF86B0019072
:102F60000091019BB3F1FF3F39D0019B03F1604316
:102F7000A3F51C230593059B4FEA13130493059BAC
:102F800003F00F034FEA430303934FF44043C4F2AB
:102F900002034FF44042C4F20202049952F8211095
:102FA0004FF00300039A00FA02F26FEA02021140A6
:102FB000049A43F822104FF44043C4F202034FF442
:102FC0004042C4F20202049952F821100098039A78
:102FD00000FA02F21143049A43F8221000E000BF05
:102FE00006B0704786B001900B468DF80330019B08
:102FF000B3F1FF3F00F08580019B03F16043A3F52F
:103000001C230593059B4FEA53130493059B03F080
:103010001F0303939DF8033003F004034FEA930367
:1030200002934FF44043C4F202034FF44042C4F20F
:103030000202049901F11A0152F821100298039A30
:1030400000FA02F26FEA02021140049A02F11A0237
:1030500043F822104FF44043C4F202034FF44042BD
:10306000C4F20202049901F11A0152F821100298E7
:10307000039A00FA02F21143049A02F11A0243F889
:103080002210029B002B3DD1059B4FEA13130493A2
:10309000059B03F00F034FEA430303934FF44043B0
:1030A000C4F202034FF44042C4F20202049901F157
:1030B000100152F821104FF00300039A00FA02F2B7
:1030C0006FEA02021140049A02F1100243F8221042
:1030D0004FF44043C4F202034FF44042C4F20202F0
:1030E000049901F1100152F821109DF80300039A90
:1030F00000FA02F21143049A02F1100243F822107E
:1031000000E000BF06B0704782B001900091009BC4
:10311000002B05D0019BDB68019A52681A6004E01D
:10312000019B1B69019A52681A6002B0704700BF88
:1031300000B599B012AB18464CF23201C2F2090147
:103140004FF0010200F08AF80CAB18464CF2340143
:10315000C2F209014FF0010200F080F806AB1846F8
:103160004CF23501C2F209014FF0010200F076F88D
:103170006B4618464CF23701C2F209014FF00102CA
:1031800000F06CF812AB18464FF00101FFF7BCFFDE
:103190000CAB18464FF00001FFF7B6FF06AB184620
:1031A0004FF00001FFF7B0FF6B4618464FF00101EA
:1031B000FFF7AAFF4FF0960000F01EF812AB18467A
:1031C0004FF00001FFF7A0FF0CAB18464FF00101D4
:1031D000FFF79AFF06AB18464FF00101FFF794FF87
:1031E0006B4618464FF00001FFF78EFF4FF0960038
:1031F00000F002F8C6E700BF00B583B00190019B64
:103200004FF47A7202FB03F3184600F003F803B0A0
:1032100000BD00BF00B585B0019000F0FFF803903D
:1032200000BF00F0FBF80246039BD21A019B9A42B2
:10323000F7D305B000BD00BF00B583B00190019881
:103240004FF00001FFF78AFE019B03F01F034FF0D0
:10325000010202FA03F3184603B000BD00B587B0BF
:103260000390029113468DF80730029BB3F1FF3FA4
:1032700037D0039B029A1A600298FFF7DDFF0246DF
:10328000039B5A60029B23F01F030593059B03F1E8
:103290001802039BDA60059B03F11C02039B1A6171
:1032A000059B03F11402039B5A61059A039B9A60E4
:1032B0009DF807300398194600F016F89DF807307E
:1032C000002B07D0012B0DD102984FF00201FFF720
:1032D00089FE07E002984FF00301FFF783FE00BF6D
:1032E00000E000BF07B000BD82B001900B468DF832
:1032F00003309DF80330002B02D0012B0CD015E0D9
:10330000019B9B68019A92681168019A52686FEA62
:1033100002020A401A6009E0019B9B68019A9268C8
:103320001168019A52680A431A6000BF02B07047E0
:1033300082B003468DF807304FF46143CEF20003AC
:103340009DF907204FEA52129DF8071001F01F0166
:103350004FF0010000FA01F143F8221002B070476B
:1033600000B583B040F24013C1F200031B68002B8C
:1033700051D140F24013C1F200034FF001021A6034
:103380004FF44043C4F20F034FF44042C4F20F0223
:10339000D2F8C42042F40002C3F8C4204FF48043A2
:1033A000C4F209034FF000021A6740F2C803C1F2E9
:1033B00000031B684FEA930301934FF48043C4F268
:1033C00009034FF002025A60019A4DF68363C4F27A
:1033D0001B33A3FB02134FEA934300934FF4804344
:1033E000C4F20903009A02F1FF32DA604FF480431D
:1033F000C4F209034FF001025A6043F29943C0F24C
:1034000000034FF004001946FFF724FC4FF00400BE
:10341000FFF78EFF00E000BF03B000BD08B540F22B
:103420004013C1F200031B68002B01D1FFF798FF86
:103430004FF48043C4F209039B68184608BD00BFDF
:1034400082B001904FF48043C4F20903019A9A615B
:103450004FF48043C4F209034FF48042C4F20902DE
:10346000526942F001025A6102B070474FF4804342
:10347000C4F209034FF48042C4F20902526922F0F7
:1034800001025A61704700BF4FF48043C4F2090340
:103490004FF001021A60704710B582B0FFF7F4FFD9
:1034A00000E000BF40F24813C1F200031B68002B8C
:1034B00002D1FFF7DBFF37E040F24813C1F200030F
:1034C0001B681C68FFF7AAFF0346E31A002B21DCE8
:1034D00040F24813C1F200031B68019340F2481305
:1034E000C1F200031B689A6840F24813C1F200035E
:1034F0001A6040F24413C1F200031B68002BD0D0C5
:1035000040F24413C1F200031B68019A526810464E
:103510009847C6E740F24813C1F200031B681B68D6
:103520001846FFF78DFF00BF02B010BD38B50E4D35
:103530000E4B0024E81A8510AC4205D00B4951F817
:10354000242090470134F7E700F068F80849094A59
:10355000541AA5100024AC4205D0054B53F82400A2
:1035600080470134F7E738BDCC000010CC000010D4
:10357000CC000010D000001010B50023934203D0FF
:10358000CC5CC4540133F9E710BD82180346934262
:1035900002D003F8011BFAE7704710F8012B11F86D
:1035A000013B012A28BF9A42F7D0A2EB03007047E3
:1035B000034613F8012B002AFBD1181A0138704773
:1035C00070B592B10B4605461AB928781978401A99
:1035D00070BD10F8016B1C780131B442F5D1012A9D
:1035E000F3D0013A002CEDD1EFE7104670BD30B5B5
:1035F00003780BB1024603E0097871B1002030BDB9
:10360000104603780132002BF8D00023CC5C24B1A3
:10361000C55CA542F4D10133F8E730BDF8B500BF71
:10362000F8BC08BC9E467047F8B500BFF8BC08BCA3
:103630009E4670474D52495F554152545F4D424539
:10364000445F555342000000453034007D2800009F
:103650003F00000061220000630000003D250000E3
:1036600046000000A528000067000000B528000003
:1036700047000000912500006D000000CD250000EE
:103680004D0000007927000071000000E1280000D3
:10369000730000002526000058000000692100008A
:1036A0007A000000FD2000005A0000003031323363
:1036B0003435363738396162636465662009003C09
:1036C0003F786D6C2076657273696F6E3D22312E86
:1036D00030223F3E0A3C21444F4354595045206616
:1036E0006561747572652053595354454D202267A6
:1036F00064622D7461726765742E647464223E0A7C
:103700003C7461726765743E0A3C666561747572EB
:1037100065206E616D653D226F72672E676E752E36
:103720006764622E61726D2E6D2D70726F66696CAA
:1037300065223E0A3C726567206E616D653D2272AE
:1037400030222062697473697A653D223332222FF8
:103750003E0A3C726567206E616D653D22723122C2
:103760002062697473697A653D223332222F3E0AE2
:103770003C726567206E616D653D22723222206267
:10378000697473697A653D223332222F3E0A3C7296
:103790006567206E616D653D227233222062697417
:1037A00073697A653D223332222F3E0A3C72656787
:1037B000206E616D653D22723422206269747369E6
:1037C0007A653D223332222F3E0A3C726567206EB5
:1037D000616D653D227235222062697473697A6574
:1037E0003D223332222F3E0A3C726567206E616DA6
:1037F000653D227236222062697473697A653D22C2
:103800003332222F3E0A3C726567206E616D653D42
:10381000227237222062697473697A653D223332DD
:10382000222F3E0A3C726567206E616D653D2272F3
:1038300038222062697473697A653D223332222FFF
:103840003E0A3C726567206E616D653D22723922C9
:103850002062697473697A653D223332222F3E0AF1
:103860003C726567206E616D653D227231302220A9
:1038700062697473697A653D223332222F3E0A3CB5
:10388000726567206E616D653D2272313122206262
:10389000697473697A653D223332222F3E0A3C7285
:1038A0006567206E616D653D22723132222062694A
:1038B0007473697A653D223332222F3E0A3C726569
:1038C00067206E616D653D2273702220626974739A
:1038D000697A653D2233322220747970653D226415
:1038E0006174615F707472222F3E0A3C72656720BA
:1038F0006E616D653D226C72222062697473697A13
:10390000653D223332222F3E0A3C726567206E618C
:103910006D653D227063222062697473697A653D2A
:103920002233322220747970653D22636F64655FB3
:10393000707472222F3E0A3C726567206E616D655D
:103940003D2278707372222062697473697A653DD2
:1039500022333222207265676E756D3D2232352228
:103960002F3E0A3C2F666561747572653E0A3C2FD6
:103970007461726765743E0A00000000ADDEADDE62
:10398000ADDEADDEADDEADDEADDEADDEADDEADDEDF
:10399000ADDEADDEADDEADDEADDEADDE0A2A2A4D3A
:1039A0005055204661756C742A2A000A20205374F1
:1039B000617475732052656769737465723A20008B
:1039C0000A202020204661756C7420416464726571
:1039D00073733A20000A202020204650204C617A40
:1039E0007920507265736572766174696F6E000A32
:1039F00020202020537461636B696E6720457272CA
:103A00006F7220772F205350203D20000A20202065
:103A100020556E737461636B696E67204572726FB7
:103A20007220772F205350203D20000A2020202094
:103A30004461746120416363657373000A20202030
:103A400020496E737472756374696F6E2046657475
:103A50006368000A2A2A427573204661756C742ACD
:103A60002A000A20202020496D7072656369736501
:103A7000204461746120416363657373000A2020F0
:103A80002020507265636973652044617461204130
:103A90006363657373000A20202020496E7374727B
:103AA000756374696F6E2050726566657463680033
:103AB0000A2A2A5573616765204661756C742A2A43
:103AC000000A2020202044697669646520627920FC
:103AD0005A65726F000A20202020556E616C69675C
:103AE0006E656420416363657373000A20202020A3
:103AF000436F70726F636573736F722041636365A8
:103B00007373000A20202020496E76616C6964205E
:103B1000457863657074696F6E2052657475726E56
:103B2000205374617465000A20202020496E76615C
:103B30006C6964205374617465000A20202020554C
:103B40006E646566696E656420496E737472756330
:103B500074696F6E000A2A2A486172642046617592
:103B60006C742A2A000A2020202044656275672090
:103B70004576656E74000A20202020566563746FB8
:103B800072205461626C652052656164000A2020D5
:103B90002020466F72636564000A00001000000078
:103BA00011000000040000000500000002000000F9
:103BB00005000000010000000500000006050700E8
:103BC000A8C10F4000C0024000C0024000C0004039
:103BD00008000000C000000030000000C00000002D
:103BE00055555555A8C10F4000C0024004C00240C1
:103BF000000001401000000000030000000000C0B1
:103C00000300000055555555ACC10F4000C002409F
:103C100000C00240008009400000000100000300D5
:103C2000000030000000C00055555555ACC10F4094
:103C300000C0024000C0024000C009400000000275
:103C400000000C00030000000C000000AAAAAAAAB1
:103C50004D52495F554152545F4D4245445F555363
:103C600042004D52495F554152545F4D4245445FB9
:103C700050395F503130004D52495F554152545FC9
:103C80004D4245445F5031335F503134004D52490D
:103C90005F554152545F4D4245445F5032385F504A
:103CA0003237004D52495F554152545F30004D52FA
:103CB000495F554152545F31004D52495F55415261
:103CC000545F32004D52495F554152545F33004DAD
:103CD00052495F554152545F5348415245004D523D
:103CE000495F554152545F424155443D00313031A6
:103CF00030303030303030303030303030303030C4
:103D0000303030303246374630303030300000000E
:103D100000303132333435363738396162636465A7
:103D20006645303100453035004F4B0046756E6CAE
:103D3000696E6B2C0046636C6F73652C0046726570
:103D40006E616D652C004677726974652C00466F54
:103D500070656E2C004666737461742C002C4300F1
:103D600046726561642C00466C7365656B2C004679
:103D7000737461742C0045303300726561640058BF
:103D800066657200537570706F727465640074615B
:103D9000726765742E786D6C007461726765742E3D
:103DA000786D6C0071586665723A6D656D6F7279E9
:103DB0002D6D61703A726561642B3B715866657256
:103DC0003A66656174757265733A726561642B3B1E
:103DD0005061636B657453697A653D006665617413
:103DE00075726573006D656D6F72792D6D61700010
:103DF0003078003C3F786D6C2076657273696F6E29
:103E00003D22312E30223F3E3C21444F43545950F5
:103E100045206D656D6F72792D6D61702050554232
:103E20004C494320222B2F2F49444E20676E752E7C
:103E30006F72672F2F44544420474442204D656DD4
:103E40006F7279204D61702056312E302F2F454EE4
:103E5000222022687474703A2F2F736F7572636515
:103E6000776172652E6F72672F6764622F67646275
:103E70002D6D656D6F72792D6D61702E6474642285
:103E80003E3C6D656D6F72792D6D61703E3C6D6568
:103E90006D6F727920747970653D22666C6173680C
:103EA000222073746172743D2230783022206C6558
:103EB0006E6774683D2230783130303030223E20D9
:103EC0003C70726F7065727479206E616D653D2211
:103ED000626C6F636B73697A65223E307831303083
:103EE000303C2F70726F70657274793E3C2F6D6537
:103EF0006D6F72793E3C6D656D6F7279207479706B
:103F0000653D22666C617368222073746172743D32
:103F1000223078313030303022206C656E67746822
:103F20003D2230783730303030223E203C70726F86
:103F30007065727479206E616D653D22626C6F638D
:103F40006B73697A65223E3078383030303C2F70A0
:103F5000726F70657274793E3C2F6D656D6F72790A
:103F60003E3C6D656D6F727920747970653D22728B
:103F7000616D222073746172743D2230783130306B
:103F8000303030303022206C656E6774683D2230EE
:103F90007838303030223E203C2F6D656D6F72795D
:103FA0003E3C6D656D6F727920747970653D22724B
:103FB0006F6D222073746172743D223078314646F1
:103FC000463030303022206C656E6774683D223098
:103FD0007832303030223E203C2F6D656D6F727923
:103FE0003E3C6D656D6F727920747970653D22720B
:103FF000616D222073746172743D223078323030EA
:10400000374330303022206C656E6774683D223053
:104010007838303030223E203C2F6D656D6F7279DC
:104020003E3C6D656D6F727920747970653D2272CA
:10403000616D222073746172743D223078323030A9
:10404000394330303022206C656E6774683D223011
:104050007834303030223E203C2F6D656D6F7279A0
:104060003E3C6D656D6F727920747970653D22728A
:10407000616D222073746172743D22307832323067
:10408000303030303022206C656E6774683D2230ED
:104090007832303030303030223E203C2F6D656D2C
:1040A0006F72793E3C6D656D6F72792074797065C1
:1040B0003D2272616D222073746172743D223078EA
:1040C000343030303030303022206C656E677468A8
:1040D0003D2230783134303030223E203C2F6D6527
:1040E0006D6F72793E3C6D656D6F72792074797079
:1040F000653D2272616D222073746172743D2230BD
:1041000078343030313830303022206C656E67744E
:10411000683D2230783334303030223E203C2F6DE1
:10412000656D6F72793E3C6D656D6F727920747943
:1041300070653D2272616D222073746172743D223C
:104140003078343030354330303022206C656E6743
:1041500074683D22307834303030223E203C2F6D60
:10416000656D6F72793E3C6D656D6F727920747903
:1041700070653D2272616D222073746172743D22FC
:104180003078343030383830303022206C656E670B
:1041900074683D2230783143303030223E203C2F4D
:1041A0006D656D6F72793E3C6D656D6F72792074CF
:1041B0007970653D2272616D222073746172743D65
:1041C000223078343030413830303022206C656E07
:1041D0006774683D22307834303030223E203C2FE6
:1041E0006D656D6F72793E3C6D656D6F727920748F
:1041F0007970653D2272616D222073746172743D25
:10420000223078343030423030303022206C656ECD
:104210006774683D22307834303030223E203C2FA5
:104220006D656D6F72793E3C6D656D6F727920744E
:104230007970653D2272616D222073746172743DE4
:10424000223078343030423830303022206C656E85
:104250006774683D22307838303030223E203C2F61
:104260006D656D6F72793E3C6D656D6F727920740E
:104270007970653D2272616D222073746172743DA4
:10428000223078343030464330303022206C656E36
:104290006774683D22307834303030223E203C2F25
:1042A0006D656D6F72793E3C6D656D6F72792074CE
:1042B0007970653D2272616D222073746172743D64
:1042C000223078343230303030303022206C656E1D
:1042D0006774683D22307832303030303030223EE2
:1042E000203C2F6D656D6F72793E3C6D656D6F7210
:1042F0007920747970653D2272616D22207374613A
:1043000072743D22307835303030303030302220F9
:104310006C656E6774683D22307838303030223EEC
:10432000203C2F6D656D6F72793E3C6D656D6F72CF
:104330007920747970653D2272616D2220737461F9
:1043400072743D22307835303030433030302220A6
:104350006C656E6774683D22307834303030223EB0
:10436000203C2F6D656D6F72793E3C6D656D6F728F
:104370007920747970653D2272616D2220737461B9
:1043800072743D2230784530303030303030222069
:104390006C656E6774683D22307831303030303073
:1043A000223E203C2F6D656D6F72793E3C2F6D650E
:1043B0006D6F72792D6D61703E000000000000008D
:0C43C00000D8B805F1000000CD0000009E
:0400000300002ECDFE
:00000001FF
